{
  "_format": "hh-sol-artifact-1",
  "contractName": "DealClient",
  "sourceName": "contracts/basic-deal-client/DealClient.sol",
  "abi": [
    {
      "inputs": [],
      "stateMutability": "nonpayable",
      "type": "constructor"
    },
    {
      "inputs": [
        {
          "internalType": "int256",
          "name": "errorCode",
          "type": "int256"
        }
      ],
      "name": "ActorError",
      "type": "error"
    },
    {
      "inputs": [],
      "name": "FailToCallActor",
      "type": "error"
    },
    {
      "inputs": [
        {
          "internalType": "uint64",
          "name": "",
          "type": "uint64"
        }
      ],
      "name": "InvalidCodec",
      "type": "error"
    },
    {
      "inputs": [],
      "name": "InvalidResponseLength",
      "type": "error"
    },
    {
      "inputs": [
        {
          "internalType": "uint256",
          "name": "balance",
          "type": "uint256"
        },
        {
          "internalType": "uint256",
          "name": "value",
          "type": "uint256"
        }
      ],
      "name": "NotEnoughBalance",
      "type": "error"
    },
    {
      "anonymous": false,
      "inputs": [
        {
          "indexed": true,
          "internalType": "bytes32",
          "name": "id",
          "type": "bytes32"
        },
        {
          "indexed": false,
          "internalType": "uint64",
          "name": "size",
          "type": "uint64"
        },
        {
          "indexed": true,
          "internalType": "bool",
          "name": "verified",
          "type": "bool"
        },
        {
          "indexed": false,
          "internalType": "uint256",
          "name": "price",
          "type": "uint256"
        }
      ],
      "name": "DealProposalCreate",
      "type": "event"
    },
    {
      "anonymous": false,
      "inputs": [
        {
          "indexed": false,
          "internalType": "string",
          "name": "text",
          "type": "string"
        }
      ],
      "name": "Log",
      "type": "event"
    },
    {
      "anonymous": false,
      "inputs": [
        {
          "indexed": false,
          "internalType": "string",
          "name": "received",
          "type": "string"
        }
      ],
      "name": "ReceivedDataCap",
      "type": "event"
    },
    {
      "anonymous": false,
      "inputs": [
        {
          "indexed": false,
          "internalType": "bytes32",
          "name": "id",
          "type": "bytes32"
        }
      ],
      "name": "UniqId",
      "type": "event"
    },
    {
      "inputs": [],
      "name": "AUTHENTICATE_MESSAGE_METHOD_NUM",
      "outputs": [
        {
          "internalType": "uint64",
          "name": "",
          "type": "uint64"
        }
      ],
      "stateMutability": "view",
      "type": "function"
    },
    {
      "inputs": [],
      "name": "DATACAP_RECEIVER_HOOK_METHOD_NUM",
      "outputs": [
        {
          "internalType": "uint64",
          "name": "",
          "type": "uint64"
        }
      ],
      "stateMutability": "view",
      "type": "function"
    },
    {
      "inputs": [],
      "name": "MARKET_NOTIFY_DEAL_METHOD_NUM",
      "outputs": [
        {
          "internalType": "uint64",
          "name": "",
          "type": "uint64"
        }
      ],
      "stateMutability": "view",
      "type": "function"
    },
    {
      "inputs": [],
      "name": "ONE_MONTH",
      "outputs": [
        {
          "internalType": "int64",
          "name": "",
          "type": "int64"
        }
      ],
      "stateMutability": "view",
      "type": "function"
    },
    {
      "inputs": [
        {
          "components": [
            {
              "internalType": "bytes",
              "name": "data",
              "type": "bytes"
            }
          ],
          "internalType": "struct CommonTypes.FilAddress",
          "name": "client",
          "type": "tuple"
        },
        {
          "internalType": "uint256",
          "name": "value",
          "type": "uint256"
        }
      ],
      "name": "addBalance",
      "outputs": [],
      "stateMutability": "nonpayable",
      "type": "function"
    },
    {
      "inputs": [
        {
          "internalType": "bytes",
          "name": "",
          "type": "bytes"
        }
      ],
      "name": "backupItems",
      "outputs": [
        {
          "internalType": "string",
          "name": "name",
          "type": "string"
        },
        {
          "internalType": "uint16",
          "name": "totalDealCount",
          "type": "uint16"
        },
        {
          "internalType": "uint16",
          "name": "atLeast1MonthDealCount",
          "type": "uint16"
        },
        {
          "internalType": "uint16",
          "name": "targetRedundancy",
          "type": "uint16"
        },
        {
          "internalType": "uint64",
          "name": "pieceSize",
          "type": "uint64"
        },
        {
          "internalType": "string",
          "name": "label",
          "type": "string"
        },
        {
          "internalType": "int64",
          "name": "dealDuration",
          "type": "int64"
        },
        {
          "internalType": "uint256",
          "name": "maxPricePerEpoch",
          "type": "uint256"
        },
        {
          "internalType": "string",
          "name": "originalLocation",
          "type": "string"
        },
        {
          "internalType": "uint64",
          "name": "carSize",
          "type": "uint64"
        },
        {
          "internalType": "uint64",
          "name": "dealArrayId",
          "type": "uint64"
        }
      ],
      "stateMutability": "view",
      "type": "function"
    },
    {
      "inputs": [
        {
          "internalType": "uint16",
          "name": "newValue",
          "type": "uint16"
        }
      ],
      "name": "changeDefaultTargetRedundancy",
      "outputs": [
        {
          "internalType": "bool",
          "name": "",
          "type": "bool"
        }
      ],
      "stateMutability": "nonpayable",
      "type": "function"
    },
    {
      "inputs": [
        {
          "internalType": "bytes",
          "name": "commP",
          "type": "bytes"
        },
        {
          "internalType": "uint16",
          "name": "newValue",
          "type": "uint16"
        }
      ],
      "name": "changeTargetRedundancy",
      "outputs": [
        {
          "internalType": "bool",
          "name": "",
          "type": "bool"
        }
      ],
      "stateMutability": "nonpayable",
      "type": "function"
    },
    {
      "inputs": [
        {
          "internalType": "uint64",
          "name": "",
          "type": "uint64"
        },
        {
          "internalType": "uint256",
          "name": "",
          "type": "uint256"
        }
      ],
      "name": "dealArrays",
      "outputs": [
        {
          "internalType": "uint64",
          "name": "dealId",
          "type": "uint64"
        },
        {
          "internalType": "bytes",
          "name": "providerAddress",
          "type": "bytes"
        },
        {
          "internalType": "int64",
          "name": "startEpoch",
          "type": "int64"
        },
        {
          "internalType": "int64",
          "name": "endEpoch",
          "type": "int64"
        },
        {
          "components": [
            {
              "internalType": "int64",
              "name": "activated",
              "type": "int64"
            },
            {
              "internalType": "int64",
              "name": "terminated",
              "type": "int64"
            }
          ],
          "internalType": "struct MarketTypes.GetDealActivationReturn",
          "name": "status",
          "type": "tuple"
        },
        {
          "internalType": "bool",
          "name": "isActive",
          "type": "bool"
        }
      ],
      "stateMutability": "view",
      "type": "function"
    },
    {
      "inputs": [
        {
          "internalType": "bytes32",
          "name": "",
          "type": "bytes32"
        }
      ],
      "name": "dealProposals",
      "outputs": [
        {
          "internalType": "bytes",
          "name": "",
          "type": "bytes"
        }
      ],
      "stateMutability": "view",
      "type": "function"
    },
    {
      "inputs": [
        {
          "internalType": "bytes",
          "name": "commP",
          "type": "bytes"
        }
      ],
      "name": "getBackupItem",
      "outputs": [
        {
          "components": [
            {
              "internalType": "string",
              "name": "name",
              "type": "string"
            },
            {
              "internalType": "uint16",
              "name": "totalDealCount",
              "type": "uint16"
            },
            {
              "internalType": "uint16",
              "name": "atLeast1MonthDealCount",
              "type": "uint16"
            },
            {
              "internalType": "uint16",
              "name": "targetRedundancy",
              "type": "uint16"
            },
            {
              "internalType": "uint64",
              "name": "pieceSize",
              "type": "uint64"
            },
            {
              "internalType": "string",
              "name": "label",
              "type": "string"
            },
            {
              "internalType": "int64",
              "name": "dealDuration",
              "type": "int64"
            },
            {
              "internalType": "uint256",
              "name": "maxPricePerEpoch",
              "type": "uint256"
            },
            {
              "internalType": "string",
              "name": "originalLocation",
              "type": "string"
            },
            {
              "internalType": "uint64",
              "name": "carSize",
              "type": "uint64"
            },
            {
              "internalType": "uint64",
              "name": "dealArrayId",
              "type": "uint64"
            }
          ],
          "internalType": "struct BackupItem",
          "name": "",
          "type": "tuple"
        }
      ],
      "stateMutability": "view",
      "type": "function"
    },
    {
      "inputs": [
        {
          "internalType": "bytes32",
          "name": "proposalId",
          "type": "bytes32"
        }
      ],
      "name": "getCommpFromId",
      "outputs": [
        {
          "internalType": "bytes",
          "name": "",
          "type": "bytes"
        }
      ],
      "stateMutability": "view",
      "type": "function"
    },
    {
      "inputs": [
        {
          "internalType": "bytes32",
          "name": "proposalId",
          "type": "bytes32"
        }
      ],
      "name": "getDealProposal",
      "outputs": [
        {
          "internalType": "bytes",
          "name": "",
          "type": "bytes"
        }
      ],
      "stateMutability": "view",
      "type": "function"
    },
    {
      "inputs": [
        {
          "internalType": "bytes",
          "name": "commP",
          "type": "bytes"
        }
      ],
      "name": "getDeals",
      "outputs": [
        {
          "components": [
            {
              "internalType": "uint64",
              "name": "dealId",
              "type": "uint64"
            },
            {
              "internalType": "bytes",
              "name": "providerAddress",
              "type": "bytes"
            },
            {
              "internalType": "int64",
              "name": "startEpoch",
              "type": "int64"
            },
            {
              "internalType": "int64",
              "name": "endEpoch",
              "type": "int64"
            },
            {
              "components": [
                {
                  "internalType": "int64",
                  "name": "activated",
                  "type": "int64"
                },
                {
                  "internalType": "int64",
                  "name": "terminated",
                  "type": "int64"
                }
              ],
              "internalType": "struct MarketTypes.GetDealActivationReturn",
              "name": "status",
              "type": "tuple"
            },
            {
              "internalType": "bool",
              "name": "isActive",
              "type": "bool"
            }
          ],
          "internalType": "struct BackupItemDeal[]",
          "name": "",
          "type": "tuple[]"
        }
      ],
      "stateMutability": "view",
      "type": "function"
    },
    {
      "inputs": [],
      "name": "getDefaultTargetRedundancy",
      "outputs": [
        {
          "internalType": "uint16",
          "name": "",
          "type": "uint16"
        }
      ],
      "stateMutability": "view",
      "type": "function"
    },
    {
      "inputs": [
        {
          "internalType": "bytes32",
          "name": "proposalId",
          "type": "bytes32"
        }
      ],
      "name": "getExtraParams",
      "outputs": [
        {
          "internalType": "bytes",
          "name": "extra_params",
          "type": "bytes"
        }
      ],
      "stateMutability": "view",
      "type": "function"
    },
    {
      "inputs": [
        {
          "internalType": "bytes",
          "name": "commP",
          "type": "bytes"
        }
      ],
      "name": "getNameForCommp",
      "outputs": [
        {
          "internalType": "string",
          "name": "",
          "type": "string"
        }
      ],
      "stateMutability": "view",
      "type": "function"
    },
    {
      "inputs": [
        {
          "internalType": "uint64",
          "name": "from",
          "type": "uint64"
        },
        {
          "internalType": "uint64",
          "name": "count",
          "type": "uint64"
        }
      ],
      "name": "getNameLookupArraySegment",
      "outputs": [
        {
          "components": [
            {
              "internalType": "string",
              "name": "name",
              "type": "string"
            },
            {
              "internalType": "bytes",
              "name": "commP",
              "type": "bytes"
            }
          ],
          "internalType": "struct NameEntry[]",
          "name": "",
          "type": "tuple[]"
        }
      ],
      "stateMutability": "view",
      "type": "function"
    },
    {
      "inputs": [
        {
          "internalType": "uint64",
          "name": "method",
          "type": "uint64"
        },
        {
          "internalType": "uint64",
          "name": "",
          "type": "uint64"
        },
        {
          "internalType": "bytes",
          "name": "params",
          "type": "bytes"
        }
      ],
      "name": "handle_filecoin_method",
      "outputs": [
        {
          "internalType": "uint32",
          "name": "",
          "type": "uint32"
        },
        {
          "internalType": "uint64",
          "name": "",
          "type": "uint64"
        },
        {
          "internalType": "bytes",
          "name": "",
          "type": "bytes"
        }
      ],
      "stateMutability": "nonpayable",
      "type": "function"
    },
    {
      "inputs": [
        {
          "internalType": "bytes",
          "name": "commP",
          "type": "bytes"
        }
      ],
      "name": "keepTargetRedundancy",
      "outputs": [
        {
          "internalType": "bool",
          "name": "",
          "type": "bool"
        }
      ],
      "stateMutability": "nonpayable",
      "type": "function"
    },
    {
      "inputs": [],
      "name": "owner",
      "outputs": [
        {
          "internalType": "address",
          "name": "",
          "type": "address"
        }
      ],
      "stateMutability": "view",
      "type": "function"
    },
    {
      "inputs": [],
      "name": "refreshMetadataForAll",
      "outputs": [
        {
          "internalType": "bool",
          "name": "",
          "type": "bool"
        }
      ],
      "stateMutability": "nonpayable",
      "type": "function"
    },
    {
      "inputs": [
        {
          "internalType": "bytes",
          "name": "commP",
          "type": "bytes"
        }
      ],
      "name": "refreshMetadataForBackupItem",
      "outputs": [
        {
          "internalType": "bool",
          "name": "",
          "type": "bool"
        }
      ],
      "stateMutability": "nonpayable",
      "type": "function"
    },
    {
      "inputs": [
        {
          "internalType": "bytes[]",
          "name": "list",
          "type": "bytes[]"
        }
      ],
      "name": "refreshMetadataForList",
      "outputs": [
        {
          "internalType": "bool",
          "name": "",
          "type": "bool"
        }
      ],
      "stateMutability": "nonpayable",
      "type": "function"
    },
    {
      "inputs": [
        {
          "components": [
            {
              "internalType": "string",
              "name": "name",
              "type": "string"
            },
            {
              "internalType": "bytes",
              "name": "pieceCID",
              "type": "bytes"
            },
            {
              "internalType": "uint64",
              "name": "pieceSize",
              "type": "uint64"
            },
            {
              "internalType": "string",
              "name": "label",
              "type": "string"
            },
            {
              "internalType": "int64",
              "name": "dealDuration",
              "type": "int64"
            },
            {
              "internalType": "uint256",
              "name": "maxPricePerEpoch",
              "type": "uint256"
            },
            {
              "internalType": "string",
              "name": "originalLocation",
              "type": "string"
            },
            {
              "internalType": "uint64",
              "name": "carSize",
              "type": "uint64"
            }
          ],
          "internalType": "struct BackupRequest",
          "name": "backupMeta",
          "type": "tuple"
        }
      ],
      "name": "startBackup",
      "outputs": [
        {
          "internalType": "bool",
          "name": "",
          "type": "bool"
        }
      ],
      "stateMutability": "nonpayable",
      "type": "function"
    },
    {
      "inputs": [
        {
          "components": [
            {
              "internalType": "bytes",
              "name": "data",
              "type": "bytes"
            }
          ],
          "internalType": "struct CommonTypes.FilAddress",
          "name": "client",
          "type": "tuple"
        },
        {
          "internalType": "uint256",
          "name": "value",
          "type": "uint256"
        }
      ],
      "name": "withdrawBalance",
      "outputs": [
        {
          "internalType": "uint256",
          "name": "",
          "type": "uint256"
        }
      ],
      "stateMutability": "nonpayable",
      "type": "function"
    }
  ],
  "bytecode": "0x6080604052600480546001600160901b031916600160811b17905534801561002657600080fd5b50600580546001600160a01b031916331790556159f680620000496000396000f3fe608060405234801561001057600080fd5b506004361061018d5760003560e01c806374112d66116100de578063ae9dbe3e11610097578063e7c897f911610071578063e7c897f9146103fc578063f0e503021461040f578063f4b2e4d814610422578063f71c29cc1461043557600080fd5b8063ae9dbe3e146103cb578063b34ba252146103de578063de01efc9146103e957600080fd5b806374112d661461032e578063868e10c4146103415780638993dcda146103635780638da5cb5b146103835780638f915d93146103ae5780639f1a1fb3146103b657600080fd5b80633b2c07e71161014b5780634dc326e6116101255780634dc326e6146102ad5780636067f454146102f05780636b38eda7146102fb57806370c44f531461031b57600080fd5b80633b2c07e714610267578063413428bd146102875780634634aed51461029a57600080fd5b806270679014610192578063028a6785146101ba5780631bb858b3146101df57806320988cef146102095780632b2a8abb1461022657806338cefddc14610247575b600080fd5b61019d639d8b067881565b6040516001600160401b0390911681526020015b60405180910390f35b6101cd6101c83660046149f3565b610456565b6040516101b196959493929190614a6f565b6101f26101ed366004614b90565b610567565b6040516101b19b9a99989796959493929190614bc4565b6102136201518081565b60405160079190910b81526020016101b1565b610239610234366004614c72565b610792565b6040519081526020016101b1565b61025a610255366004614cfc565b6107ed565b6040516101b19190614d35565b61027a610275366004614b90565b610ad4565b6040516101b19190614dba565b61027a610295366004614dcd565b610b85565b61027a6102a8366004614dcd565b610c29565b6102e06102bb366004614dfd565b6004805461ffff909216600160801b0261ffff60801b19909216919091179055600190565b60405190151581526020016101b1565b61019d63f98c996681565b61030e610309366004614b90565b610dd3565b6040516101b19190614e18565b6102e0610329366004614b90565b611094565b61027a61033c366004614dcd565b6114b4565b61035461034f366004614f1e565b61154e565b6040516101b193929190614f7f565b610376610371366004614b90565b611655565b6040516101b19190614fb6565b600554610396906001600160a01b031681565b6040516001600160a01b0390911681526020016101b1565b6102e06117f7565b6103c96103c4366004614c72565b6118e7565b005b6102e06103d936600461506f565b61190c565b61019d63de180de381565b6102e06103f7366004614b90565b611969565b6102e061040a366004615131565b611b13565b6102e061041d36600461517e565b611b9e565b61027a610430366004614dcd565b61215b565b600454600160801b900461ffff1660405161ffff90911681526020016101b1565b6002602052816000526040600020818154811061047257600080fd5b6000918252602090912060059091020180546001820180546001600160401b0390921694509192506104a3906151b9565b80601f01602080910402602001604051908101604052809291908181526020018280546104cf906151b9565b801561051c5780601f106104f15761010080835404028352916020019161051c565b820191906000526020600020905b8154815290600101906020018083116104ff57829003601f168201915b5050506002840154604080518082019091526003860154600781810b8352600160401b91829004810b6020840152600490970154959683810b969190930490920b9350915060ff1686565b805160208183018101805160018252928201919093012091528054819061058d906151b9565b80601f01602080910402602001604051908101604052809291908181526020018280546105b9906151b9565b80156106065780601f106105db57610100808354040283529160200191610606565b820191906000526020600020905b8154815290600101906020018083116105e957829003601f168201915b505050506001830154600284018054939461ffff8084169562010000850482169550600160201b850490911693600160301b90046001600160401b0316929061064e906151b9565b80601f016020809104026020016040519081016040528092919081815260200182805461067a906151b9565b80156106c75780601f1061069c576101008083540402835291602001916106c7565b820191906000526020600020905b8154815290600101906020018083116106aa57829003601f168201915b5050505050908060030160009054906101000a900460070b908060040154908060050180546106f5906151b9565b80601f0160208091040260200160405190810160405280929190818152602001828054610721906151b9565b801561076e5780601f106107435761010080835404028352916020019161076e565b820191906000526020600020905b81548152906001019060200180831161075157829003601f168201915b505050600690930154919250506001600160401b0380821691600160401b9004168b565b6005546000906001600160a01b031633146107ac57600080fd5b600060405180604001604052808581526020016107c8856123fb565b9052905060006107d782612441565b90506107e281612485565b925050505b92915050565b6003546060906001600160401b0384161061086d5760405162461bcd60e51b815260206004820152603560248201527f66726f6d2076616c75652063616e2774206265206c6172676572207468656e206044820152747468652073697a65206f662074686520617272617960581b60648201526084015b60405180910390fd5b6003546001600160401b03166108838385615203565b6001600160401b031611156108985760035491505b6000826001600160401b03166001600160401b038111156108bb576108bb614acd565b60405190808252806020026020018201604052801561090057816020015b60408051808201909152606080825260208201528152602001906001900390816108d95790505b5090506000845b6109118587615203565b6001600160401b0316816001600160401b03161015610aca576003816001600160401b0316815481106109465761094661522a565b906000526020600020906002020160405180604001604052908160008201805461096f906151b9565b80601f016020809104026020016040519081016040528092919081815260200182805461099b906151b9565b80156109e85780601f106109bd576101008083540402835291602001916109e8565b820191906000526020600020905b8154815290600101906020018083116109cb57829003601f168201915b50505050508152602001600182018054610a01906151b9565b80601f0160208091040260200160405190810160405280929190818152602001828054610a2d906151b9565b8015610a7a5780601f10610a4f57610100808354040283529160200191610a7a565b820191906000526020600020905b815481529060010190602001808311610a5d57829003601f168201915b50505050508152505083836001600160401b031681518110610a9e57610a9e61522a565b60200260200101819052508180610ab490615240565b9250508080610ac290615240565b915050610907565b5090949350505050565b6060600182604051610ae69190615266565b9081526040519081900360200190208054610b00906151b9565b80601f0160208091040260200160405190810160405280929190818152602001828054610b2c906151b9565b8015610b795780601f10610b4e57610100808354040283529160200191610b79565b820191906000526020600020905b815481529060010190602001808311610b5c57829003601f168201915b50505050509050919050565b600081815260208190526040812080546060929190610ba3906151b9565b80601f0160208091040260200160405190810160405280929190818152602001828054610bcf906151b9565b8015610c1c5780601f10610bf157610100808354040283529160200191610c1c565b820191906000526020600020905b815481529060010190602001808311610bff57829003601f168201915b5093979650505050505050565b600081815260208190526040812080546060929190610c47906151b9565b80601f0160208091040260200160405190810160405280929190818152602001828054610c73906151b9565b8015610cc05780601f10610c9557610100808354040283529160200191610cc0565b820191906000526020600020905b815481529060010190602001808311610ca357829003601f168201915b5050505050905060006040518060800160405280600184604051610ce49190615266565b90815260200160405180910390206005018054610d00906151b9565b80601f0160208091040260200160405190810160405280929190818152602001828054610d2c906151b9565b8015610d795780601f10610d4e57610100808354040283529160200191610d79565b820191906000526020600020905b815481529060010190602001808311610d5c57829003601f168201915b50505050508152602001600184604051610d939190615266565b9081526040805160209281900383019020600601546001600160401b03168352600091830182905291909101529050610dcb816124ac565b949350505050565b604080516101608101825260608082526000602083018190529282018390528082018390526080820183905260a0820181905260c0820183905260e082018390526101008201526101208101829052610140810191909152600182604051610e3b9190615266565b908152602001604051809103902060405180610160016040529081600082018054610e65906151b9565b80601f0160208091040260200160405190810160405280929190818152602001828054610e91906151b9565b8015610ede5780601f10610eb357610100808354040283529160200191610ede565b820191906000526020600020905b815481529060010190602001808311610ec157829003601f168201915b5050509183525050600182015461ffff808216602084015262010000820481166040840152600160201b8204166060830152600160301b90046001600160401b0316608082015260028201805460a090920191610f3a906151b9565b80601f0160208091040260200160405190810160405280929190818152602001828054610f66906151b9565b8015610fb35780601f10610f8857610100808354040283529160200191610fb3565b820191906000526020600020905b815481529060010190602001808311610f9657829003601f168201915b5050509183525050600382015460070b602082015260048201546040820152600582018054606090920191610fe7906151b9565b80601f0160208091040260200160405190810160405280929190818152602001828054611013906151b9565b80156110605780601f1061103557610100808354040283529160200191611060565b820191906000526020600020905b81548152906001019060200180831161104357829003601f168201915b5050509183525050600691909101546001600160401b038082166020840152600160401b9091041660409091015292915050565b6000806001836040516110a79190615266565b908152604051908190036020019020600601546001600160401b03600160401b909104169050600080805b6001600160401b03841660009081526002602052604090205461ffff8216101561142f576001600160401b0384166000908152600260205260408120805461ffff84169081106111245761112461522a565b60009182526020909120600590910201546001600160401b0316905061114981612514565b6001600160401b0386166000908152600260205260409020805461ffff85169081106111775761117761522a565b600091825260208083208451600593909302016003018054948201516001600160401b039384166001600160801b031990961695909517600160401b958416959095029490941790935587168152600290915260408120805461ffff85169081106111e4576111e461522a565b600091825260209091206003600590920201015460070b13801561125557506001600160401b038516600090815260026020526040902080546001919061ffff85169081106112355761123561522a565b6000918252602090912060036005909202010154600160401b900460070b125b15611343578361126481615282565b6001600160401b03871660009081526002602052604090208054919650600192509061ffff851690811061129a5761129a61522a565b906000526020600020906005020160040160006101000a81548160ff0219169083151502179055504360070b6201518060026000886001600160401b03166001600160401b031681526020019081526020016000208461ffff16815481106113045761130461522a565b600091825260209091206002600590920201015461132c9190600160401b900460070b615299565b60070b1315611343578261133f81615282565b9350505b6001600160401b0385166000908152600260205260408120805461ffff85169081106113715761137161522a565b6000918252602090912060036005909202010154600160401b900460070b131561141c5760006113a5868461ffff16612561565b90508061141a5760405162461bcd60e51b815260206004820152603d60248201527f54686572652077617320616e206572726f72207768696c652072656d6f76696e60448201527f672065787069726564206465616c2066726f6d207468652061727261790000006064820152608401610864565b505b508061142781615282565b9150506110d2565b50816001866040516114419190615266565b908152602001604051809103902060010160006101000a81548161ffff021916908361ffff1602179055508060018660405161147d9190615266565b908152602001604051809103902060010160026101000a81548161ffff021916908361ffff16021790555060019350505050919050565b600060208190529081526040902080546114cd906151b9565b80601f01602080910402602001604051908101604052809291908181526020018280546114f9906151b9565b80156115465780601f1061151b57610100808354040283529160200191611546565b820191906000526020600020905b81548152906001019060200180831161152957829003601f168201915b505050505081565b60008060608082639d8b0677196001600160401b038916016115a157611573866127c3565b600061157f6001612868565b905061158c816001612889565b611595816128a0565b92506051915050611645565b63f98c9965196001600160401b038916016115c4576115bf866128eb565b611645565b63de180de2196001600160401b038916016115e2576115bf86612d73565b60405162461bcd60e51b815260206004820152603260248201527f7468652066696c65636f696e206d6574686f642074686174207761732063616c6044820152711b1959081a5cc81b9bdd081a185b991b195960721b6064820152608401610864565b6000989097509095509350505050565b606060006001836040516116699190615266565b908152604080519182900360209081018320600601546001600160401b03600160401b9091041660008181526002835283812080548085028701850190955284865291955090929184015b828210156117eb5760008481526020908190206040805160c081019091526005850290910180546001600160401b0316825260018101805492939192918401916116fd906151b9565b80601f0160208091040260200160405190810160405280929190818152602001828054611729906151b9565b80156117765780601f1061174b57610100808354040283529160200191611776565b820191906000526020600020905b81548152906001019060200180831161175957829003601f168201915b50505091835250506002820154600781810b602080850191909152600160401b92839004820b6040808601919091528051808201909152600386015480840b82529390930490910b82820152606083019190915260049092015460ff16151560809091015290825260019290920191016116b4565b50505050915050919050565b6000805b6003546001600160401b03821610156118df576118cc6003826001600160401b03168154811061182d5761182d61522a565b90600052602060002090600202016001018054611849906151b9565b80601f0160208091040260200160405190810160405280929190818152602001828054611875906151b9565b80156118c25780601f10611897576101008083540402835291602001916118c2565b820191906000526020600020905b8154815290600101906020018083116118a557829003601f168201915b5050505050611094565b50806118d781615240565b9150506117fb565b506001905090565b6005546001600160a01b031633146118fe57600080fd5b6119088282612dd1565b5050565b6000805b8251816001600160401b031610156119605761194d83826001600160401b0316815181106119405761194061522a565b6020026020010151611094565b508061195881615240565b915050611910565b50600192915050565b60008060018360405161197c9190615266565b908152604051908190036020018120600601546001600160401b03600160401b9091041691506000906001906119b3908690615266565b9081526040519081900360200190206001015461ffff620100009091041690505b6001846040516119e49190615266565b9081526040519081900360200190206001015461ffff600160201b90910481169082161015611b0957600042338684604051602001611a2694939291906152c8565b60408051601f1981840301815290829052805160209182012080835292507fa1c1563537b433fe1b334e80c2a29a51035fdbd0290bf5bd4fdf9fee6ef00cab910160405180910390a16000818152602081905260409020611a878682615383565b5060001515817ffd6419d07e4c269e58d0c63969756c2124155b4a8d6dd08b8cd46e3a9acbf625600188604051611abe9190615266565b908152604080519182900360209081018320600101546001600160401b03600160301b9091041683526000908301520160405180910390a35080611b0181615282565b9150506119d4565b5060019392505050565b6000600183604051611b259190615266565b908152604051908190036020019020600101546001600160401b03600160301b90910416600003611b58575060006107e7565b81600184604051611b699190615266565b908152602001604051809103902060010160046101000a81548161ffff021916908361ffff1602179055506001905092915050565b6005546000906001600160a01b03163314611bb857600080fd5b60408051610160810190915280611bcf848061543c565b8080601f016020809104026020016040519081016040528093929190818152602001838380828437600092018290525093855250505060208201819052604080830191909152600454600160801b900461ffff16606080840191909152608090920191611c4191908601908601615482565b6001600160401b03168152602001611c5c606085018561543c565b8080601f016020809104026020016040519081016040528093929190818152602001838380828437600092019190915250505090825250602001611ca660a085016080860161549f565b60070b815260a08401356020820152604001611cc560c085018561543c565b8080601f016020809104026020016040519081016040528093929190818152602001838380828437600092019190915250505090825250602001611d10610100850160e08601615482565b6001600160401b03908116825260045416602091820152600190611d369085018561543c565b604051611d449291906154c2565b90815260405190819003602001902081518190611d619082615383565b5060208201516001820180546040850151606086015160808701516001600160401b0316600160301b026dffffffffffffffff0000000000001961ffff928316600160201b02166dffffffffffffffffffff0000000019938316620100000263ffffffff19909516929096169190911792909217169290921791909117905560a08201516002820190611df49082615383565b5060c082015160038201805467ffffffffffffffff19166001600160401b0390921691909117905560e082015160048201556101008201516005820190611e3b9082615383565b5061012082015160069091018054610140909301516001600160401b03908116600160401b026001600160801b03199094169281169290921792909217909155600454611e8a91166001615203565b6004805467ffffffffffffffff19166001600160401b03929092169190911790556040805180820190915260039080611ec3858061543c565b8080601f016020809104026020016040519081016040528093929190818152602001838380828437600092019190915250505090825250602090810190611f0c9086018661543c565b8080601f0160208091040260200160405190810160405280939291908181526020018383808284376000920182905250939094525050835460018101855593815260209020825192936002020191829150611f679082615383565b5060208201516001820190611f7c9082615383565b5050600454611f9d9150600160401b90046001600160401b03166001615203565b600480546001600160401b0392909216600160401b026fffffffffffffffff00000000000000001990921691909117905560006001611fdf602085018561543c565b604051611fed9291906154c2565b908152604051908190036020019020600601546001600160401b03600160401b90910416905060005b6001612025602086018661543c565b6040516120339291906154c2565b9081526040519081900360200190206001015461ffff600160201b90910481169082161015611b09576000423361206d602088018861543c565b856040516020016120829594939291906154d2565b60408051601f1981840301815290829052805160209182012080835292507fa1c1563537b433fe1b334e80c2a29a51035fdbd0290bf5bd4fdf9fee6ef00cab910160405180910390a16120d8602086018661543c565b6000838152602081905260409020916120f291908361551b565b506000817ffd6419d07e4c269e58d0c63969756c2124155b4a8d6dd08b8cd46e3a9acbf6256121276060890160408a01615482565b604080516001600160401b039092168252600060208301520160405180910390a3508061215381615282565b915050612016565b600081815260208190526040812080546060929190612179906151b9565b80601f01602080910402602001604051908101604052809291908181526020018280546121a5906151b9565b80156121f25780601f106121c7576101008083540402835291602001916121f2565b820191906000526020600020905b8154815290600101906020018083116121d557829003601f168201915b50505050509050600061025890506000814361220e9190615299565b905060006001846040516122229190615266565b908152604051908190036020019020600301546122429060070b83615299565b905061224c614860565b6040805160208101825286815282525160019061226a908790615266565b908152604080516020928190038301902060010154600160301b90046001600160401b031683830152600083820152805180830182526060908190528151928301825261020560f11b8383015230901b6bffffffffffffffffffffffff191660428301528051603681840301815260568301909152815260608201526122f06000612e1f565b6080820152604051600190612306908790615266565b90815260200160405180910390206002018054612322906151b9565b80601f016020809104026020016040519081016040528092919081815260200182805461234e906151b9565b801561239b5780601f106123705761010080835404028352916020019161239b565b820191906000526020600020905b81548152906001019060200180831161237e57829003601f168201915b505050505060a0820152600783810b60c083015282900b60e08201526123c160006123fb565b6101008201526123d160006123fb565b6101208201526123e160006123fb565b6101408201526123f081612e74565b979650505050505050565b604080518082019091526060815260006020820152600061241d836000612f68565b60408051808201909152815181526020918201511515918101919091529392505050565b604080518082019091526060815260006020820152600061246183612fbb565b9050600061247a60056387ed0a64605185600080612ff4565b9050610dcb816130ea565b60008061249a8360000151846020015161314e565b905060008160000151610dcb906155d5565b606060006124ba6040612868565b90506124c7816004613180565b82516124d490829061318c565b60208301516124e49082906131a5565b60408301516124f4908290612889565b6060830151612504908290612889565b61250d816128a0565b9392505050565b6040805180820190915260008082526020820152600061253c836001600160401b03166131b1565b905060006125566005639904f2ff60518560006001612ff4565b9050610dcb816131cb565b6001600160401b03808316600090815260026020526040812054909183161061258c575060006107e7565b815b6001600160401b0384166000908152600260205260409020546125b3906001906155f9565b816001600160401b03161015612732576001600160401b03841660009081526002602052604090206125e6826001615203565b6001600160401b0316815481106125ff576125ff61522a565b906000526020600020906005020160026000866001600160401b03166001600160401b03168152602001908152602001600020826001600160401b03168154811061264c5761264c61522a565b600091825260209091208254600590920201805467ffffffffffffffff19166001600160401b0390921691909117815560018082019061268e9084018261560c565b5060028281018054918301805467ffffffffffffffff198082166001600160401b03958616908117845593546001600160801b0319928316909417600160401b948590048616850217909255600380870180549187018054948516928716928317815590549390921617918390049093169091021790556004918201549101805460ff191660ff90921615159190911790558061272a81615240565b91505061258e565b506001600160401b038316600090815260026020526040902080548061275a5761275a6156d8565b600082815260208120600560001990930192830201805467ffffffffffffffff191681559061278c6001830182614953565b506002810180546001600160801b03199081169091556003820180549091169055600401805460ff19169055905550600192915050565b60006127ce8261322f565b905060006127df826020015161328b565b8051516040519192506000916001916127f791615266565b9081526040519081900360200190206001015461ffff600160201b90910416116128635760405162461bcd60e51b815260206004820181905260248201527f436f6d6d50206d75737420657869737420696e206261636b75704974656d73216044820152606401610864565b505050565b612870614990565b805161287c90836134c7565b5060006020820152919050565b611908828261289957601461353e565b601561353e565b606081602001516000146128e55760405162461bcd60e51b815260206004820152600c60248201526b24b73b30b634b21021a127a960a11b6044820152606401610864565b50515190565b60006128f68261354d565b90506000612907826000015161328b565b80515160405191925060009160019161291f91615266565b9081526040519081900360200190206001015461ffff600160201b909104161161298b5760405162461bcd60e51b815260206004820181905260248201527f436f6d6d50206d75737420657869737420696e206261636b75704974656d73216044820152606401610864565b6000806002600060018560000151600001516040516129aa9190615266565b908152602001604051809103902060060160089054906101000a90046001600160401b03166001600160401b03166001600160401b03168152602001908152602001600020805480602002602001604051908101604052809291908181526020016000905b82821015612b465760008481526020908190206040805160c081019091526005850290910180546001600160401b031682526001810180549293919291840191612a58906151b9565b80601f0160208091040260200160405190810160405280929190818152602001828054612a84906151b9565b8015612ad15780601f10612aa657610100808354040283529160200191612ad1565b820191906000526020600020905b815481529060010190602001808311612ab457829003601f168201915b50505091835250506002820154600781810b602080850191909152600160401b92839004820b6040808601919091528051808201909152600386015480840b82529390930490910b82820152606083019190915260049092015460ff1615156080909101529082526001929092019101612a0f565b50505050905060005b8151811015612bad5784602001516001600160401b0316828281518110612b7857612b7861522a565b6020026020010151600001516001600160401b031603612b9b5760019250612bad565b80612ba5816156ee565b915050612b4f565b508115612c0a5760405162461bcd60e51b815260206004820152602560248201527f50726f766964657220697320616c72656164792073746f72696e672074686973604482015264206461746160d81b6064820152608401610864565b825151604051600291600091600191612c2291615266565b908152604080516020928190038301902060060154600160401b90046001600160401b039081168452838301949094529182016000908120835160c080820186528a8501518716825260808a81015151838701908152918b0151600790810b8489015260e08c0151900b606084015286518088019097526000198088528787015282019590955260a08101839052815460018082018455928452939092208251600590940201805467ffffffffffffffff191693909516929092178455915191929190820190612cf29082615383565b50604082015160028201805460608501516001600160401b039384166001600160801b031992831617600160401b918516820217909255608085015180516003860180546020909301519186169290931691909117931690910291909117905560a0909101516004909101805460ff19169115159190911790555050505050565b7f10aa319ed8cad9bceb033c0c2788c4ae17469ac844e4c6e2c2e20e74ca8a7be8604051612dc690602080825260119082015270446174614361702052656365697665642160781b604082015260600190565b60405180910390a150565b6000612ddc836135b3565b90506000612df56005633105f1a6605185876000612ff4565b90508051600014612e1957604051630e74990760e01b815260040160405180910390fd5b50505050565b6040805160208101909152606081526000612e39836135d1565b905060405180602001604052808260000151604051602001612e5b9190615707565b60408051601f1981840301815291905290529392505050565b60606000612e826040612868565b9050612e8f81600b613180565b825151604051612ebc91612ea591602001615707565b60408051601f198184030181529190528290613645565b6020830151612ecc9082906131a5565b6040830151612edc908290612889565b606083015151612eed908290613667565b608083015151612efe908290613667565b60a0830151612f0e90829061318c565b60c0830151612f1e908290613674565b60e0830151612f2e908290613674565b612f46612f3f8461010001516136a2565b8290613667565b612f57612f3f8461012001516136a2565b612504612f3f8461014001516136a2565b612f8e604051806060016040528060608152602001600015158152602001600081525090565b61250d83604051602001612fa491815260200190565b6040516020818303038152906040528360006137b8565b60606000612fc96040612868565b9050612fd6816002613180565b825151612fe4908290613667565b612504612f3f84602001516136a2565b6060478381101561302257604051634787a10360e11b81526004810182905260248101859052604401610864565b6000806005607f60991b0189878761303b57600061303e565b60015b8b8b8f6040516020016130569695949392919061572d565b60408051601f198184030181529082905261307091615266565b600060405180830381855af49150503d80600081146130ab576040519150601f19603f3d011682016040523d82523d6000602084013e6130b0565b606091505b5091509150816130d357604051638a7db5bf60e01b815260040160405180910390fd5b6130dc81613892565b9a9950505050505050505050565b604080518082019091526060808252600060208301819052835115613128576131138482613975565b815191935091501561312857610dcb82613b2b565b505060408051600081830181815260608301909352918152602081019190915292915050565b613174604051806060016040528060608152602001600015158152602001600081525090565b61250d838360006137b8565b61190882600483613c87565b6131998260038351613c8e565b81516128639082613da7565b61190882600083613c8e565b606060006131bf6040612868565b905061250481846131a5565b60408051808201909152600080825260208201526000806131ec8482613dc8565b92509050600281146132005761320061577c565b61320a8483613e44565b60079190910b8452915061321e8483613e44565b5060070b6020840152509092915050565b60408051808201909152606080825260208201526000806132508482613dc8565b92509050600281146132645761326461577c565b61326e8483613975565b908452915061327d8483613975565b506020840152509092915050565b613293614860565b6000806132a08482613dc8565b92509050600b81146132b4576132b461577c565b60606132c08584613975565b8094508192505050806000815181106132db576132db61522a565b01602001516001600160f81b031916156132f7576132f761577c565b6001815161330591906155f9565b6001600160401b0381111561331c5761331c614acd565b6040519080825280601f01601f191660200182016040528015613346576020820181803683370190505b5084515260015b81518110156133c1578181815181106133685761336861522a565b01602001518551516001600160f81b0319909116906133886001846155f9565b815181106133985761339861522a565b60200101906001600160f81b031916908160001a905350806133b9816156ee565b91505061334d565b506133cc8584613ee1565b6001600160401b03909116602086015292506133e88584613f60565b901515604086015292506133fc8584613975565b60608601519190915292506134118584613975565b60808601519190915292506134268584613ffb565b60a0860191909152925061343a8584613e44565b60079190910b60c086015292506134518584613e44565b60079190910b60e08601529250606061346a8685613975565b9450905061347781613b2b565b61010086015260606134898786613975565b9550905061349681613b2b565b61012087015260606134a88887613975565b965090506134b581613b2b565b61014088015250949695505050505050565b6040805180820190915260608152600060208201526134e7602083615792565b1561350f576134f7602083615792565b6135029060206155f9565b61350c90836157b4565b91505b60208084018390526040518085526000815290818401018181101561353357600080fd5b604052509192915050565b81516128639060e08317614142565b60408051808201909152606081526000602082015260008061356f8482613dc8565b92509050600281146135835761358361577c565b61358d8483613975565b908452915061359c8483613ee1565b506001600160401b03166020840152509092915050565b606060006135c16040612868565b8351909150612504908290613667565b6040805180820190915260608152600060208201526040805180820190915260608152600060208201525b6701ffffffffffffff600784901c1692607f16600084900361362b576136228282614142565b50909392505050565b6136388260808317614142565b50506135fc565b50919050565b81516136529060d8614142565b50815161366090602a614142565b5061190882825b6131998260028351613c8e565b60008160070b1261368b5761190882600083613c8e565b61190882600161369d846000196157c7565b613c8e565b8051516060906000906136b69060016157b4565b6001600160401b038111156136cd576136cd614acd565b6040519080825280601f01601f1916602001820160405280156136f7576020820181803683370190505b509050826020015115156001151514613711576000613717565b600160f81b5b8160008151811061372a5761372a61522a565b60200101906001600160f81b031916908160001a905350600160005b8451518110156136225784518051829081106137645761376461522a565b602001015160f81c60f81b8383815181106137815761378161522a565b60200101906001600160f81b031916908160001a905350816137a2816156ee565b92505080806137b0906156ee565b915050613746565b6137de604051806060016040528060608152602001600015158152602001600081525090565b6020840184516000604051600060208406146001811461381057601f841660209081038086018452830101925061381a565b6020820192508382525b508282848660046101c2fa5060208151018101604052805193505b6020841461386157602081015115600181146138515750613861565b50601f1990930192602001613835565b9283525050815260208101839052811561387b5781613886565b8051613886906141ab565b60408201529392505050565b60606000806000848060200190518101906138ad91906157f6565b919450925090506001600160401b0382166138e7578051156138e257604051630e74990760e01b815260040160405180910390fd5b613953565b6001600160401b0382166051148061390857506001600160401b0382166071145b1561392f5780516000036138e257604051630e74990760e01b815260040160405180910390fd5b60405163f1f6bced60e01b81526001600160401b0383166004820152602401610864565b8215610dcb5760405163d4bb667160e01b815260048101849052602401610864565b6060600080600061398686866141e3565b96509092506001600160401b0316905060ff8216600614806139ab575060ff82166002145b613a0e5760405162461bcd60e51b815260206004820152602e60248201527f696e76616c6964206d616a20286578706563746564204d616a546167206f722060448201526d4d616a42797465537472696e672960901b6064820152608401610864565b60051960ff831601613a4757613a2486866141e3565b96509092506001600160401b0316905060ff8216600214613a4757613a4761577c565b6000613a5382876157b4565b90506000826001600160401b03811115613a6f57613a6f614acd565b6040519080825280601f01601f191660200182016040528015613a99576020820181803683370190505b5090506000875b83811015613b0e57898181518110613aba57613aba61522a565b602001015160f81c60f81b838381518110613ad757613ad761522a565b60200101906001600160f81b031916908160001a90535081613af8816156ee565b9250508080613b06906156ee565b915050613aa0565b5081613b1a858a6157b4565b9650965050505050505b9250929050565b6040805180820190915260608152600060208201528151600003613b74575050604080516080810182526001918101918252600060608201819052918152602081019190915290565b600060018351613b8491906155f9565b6001600160401b03811115613b9b57613b9b614acd565b6040519080825280601f01601f191660200182016040528015613bc5576020820181803683370190505b509050600083600081518110613bdd57613bdd61522a565b01602001516001600160f81b031916600160f81b03613bfa575060015b60015b8451811015613c6c57848181518110613c1857613c1861522a565b01602001516001600160f81b03191683613c336001846155f9565b81518110613c4357613c4361522a565b60200101906001600160f81b031916908160001a90535080613c64816156ee565b915050613bfd565b50604080518082019091529182521515602082015292915050565b6128638383835b6017816001600160401b031611613cb4578251612e199060e0600585901b168317614142565b60ff816001600160401b031611613cf4578251613cdc906018611fe0600586901b1617614142565b508251612e19906001600160401b03831660016143bd565b61ffff816001600160401b031611613d35578251613d1d906019611fe0600586901b1617614142565b508251612e19906001600160401b03831660026143bd565b63ffffffff816001600160401b031611613d78578251613d6090601a611fe0600586901b1617614142565b508251612e19906001600160401b03831660046143bd565b8251613d8f90601b611fe0600586901b1617614142565b508251612e19906001600160401b03831660086143bd565b60408051808201909152606081526000602082015261250d83838451614442565b600080600080613dd886866141e3565b96509092506001600160401b0316905060ff8216600414613e3b5760405162461bcd60e51b815260206004820152601f60248201527f696e76616c6964206d616a20286578706563746564204d616a417272617929006044820152606401610864565b95939450505050565b600080600080613e5486866141e3565b96509092506001600160401b0316905060ff821660011480613e77575060ff8216155b613e3b5760405162461bcd60e51b815260206004820152603560248201527f696e76616c6964206d616a20286578706563746564204d616a5369676e6564496044820152746e74206f72204d616a556e7369676e6564496e742960581b6064820152608401610864565b600080600080613ef186866141e3565b96509092506001600160401b0316905060ff821615613e3b5760405162461bcd60e51b815260206004820152602560248201527f696e76616c6964206d616a20286578706563746564204d616a556e7369676e6560448201526464496e742960d81b6064820152608401610864565b600080600080613f7086866141e3565b96509092506001600160401b0316905060ff8216600714613fd35760405162461bcd60e51b815260206004820152601f60248201527f696e76616c6964206d616a20286578706563746564204d616a4f7468657229006044820152606401610864565b6015811480613fe25750601481145b613fee57613fee61577c565b6014141595939450505050565b6060600080600061400c86866141e3565b96509092506001600160401b0316905060ff821660031461407b5760405162461bcd60e51b8152602060048201526024808201527f696e76616c6964206d616a20286578706563746564204d616a54657874537472604482015263696e672960e01b6064820152608401610864565b600061408782876157b4565b90506000826001600160401b038111156140a3576140a3614acd565b6040519080825280601f01601f1916602001820160405280156140cd576020820181803683370190505b5090506000875b83811015613b0e578981815181106140ee576140ee61522a565b602001015160f81c60f81b83838151811061410b5761410b61522a565b60200101906001600160f81b031916908160001a9053508161412c816156ee565b925050808061413a906156ee565b9150506140d4565b60408051808201909152606081526000602082015282515160006141678260016157b4565b905084602001518210614188576141888561418383600261588b565b614513565b84516020838201018581535080518211156141a1578181525b5093949350505050565b60006141b68261452a565b156141c357506000919050565b60208201516141d181614573565b9251601f190160080290920192915050565b6000806000806141f38686614766565b90506142006001866157b4565b94506007600582901c16601f8216601c811061426c5760405162461bcd60e51b815260206004820152602560248201527f63616e6e6f742068616e646c6520686561646572732077697468206578747261604482015264203e20323760d81b6064820152608401610864565b60188160ff16101561428a5790945060ff1692508491506143b69050565b8060ff166018036143065760006142a18989614766565b90506142ae6001896157b4565b975060188160ff1610156142f35760405162461bcd60e51b815260206004820152600c60248201526b34b73b30b634b21031b137b960a11b6044820152606401610864565b9195505060ff1692508491506143b69050565b8060ff1660190361434057600061431d89896147b5565b905061432a6002896157b4565b97509195505061ffff1692508491506143b69050565b8060ff16601a0361437c57600061435789896147ee565b90506143646004896157b4565b97509195505063ffffffff1692508491506143b69050565b8060ff16601b1461438f5761438f61577c565b600061439b8989614827565b90506143a86008896157b4565b975091955090935085925050505b9250925092565b60408051808201909152606081526000602082015283515160006143e182856157b4565b905085602001518111156143fe576143fe8661418383600261588b565b6000600161440e86610100615986565b61441891906155f9565b90508651828101878319825116178152508051831115614436578281525b50959695505050505050565b604080518082019091526060815260006020820152825182111561446557600080fd5b835151600061447484836157b4565b90508560200151811115614491576144918661418383600261588b565b8551805183820160200191600091808511156144ab578482525b505050602086015b602086106144eb57805182526144ca6020836157b4565b91506144d76020826157b4565b90506144e46020876155f9565b95506144b3565b51815160001960208890036101000a0190811690199190911617905250849150509392505050565b815161451f83836134c7565b50612e198382613da7565b60008060208301815b84518110156145685781519250821561455157506000949350505050565b60209182019161456190826157b4565b9050614533565b506001949350505050565b600081156001811461475d57604080517ff8f9cbfae6cc78fbefe7cdc3a1793dfcf4f0e8bbd8cec470b6a28a7a5a3e1efd81527ff5ecf1b3e9debc68e1d9cfabc5997135bfb7a7a3938b7b606b5b4b3f2f1f0ffe60208201527ff6e4ed9ff2d6b458eadcdf97bd91692de2d4da8fd2d0ac50c6ae9a8272523616818301527fc8c0b887b0a8a4489c948c7f847c6125746c645c544c444038302820181008ff60608201527ff7cae577eec2a03cf3bad76fb589591debb2dd67e0aa9834bea6925f6a4a2e0e60808201527fe39ed557db96902cd38ed14fad815115c786af479b7e8324736353433727170760a08201527fc976c13bb96e881cb166a933a55e490d9d56952b8d4e801485467d236242260660c08201527f753a6d1b65325d0c552a4d1345224105391a310b29122104190a11030902010060e0820152610100818101909252600160f81b7e818283848586878898a8b8c8d8e8f929395969799a9b9d9e9faaeb6bedeeff600160801b600160401b600160201b620100006010600460026000198e0190810481179182049091179182049091178981041791820490911791820490911791820490911791820490911760010191820283900460ff03909301519096600160ff1b81119094029190040193508116614757576001830192505b5061363f565b50600092915050565b60006147738260016157b4565b835110156147935760405162461bcd60e51b815260040161086490615992565b8282815181106147a5576147a561522a565b016020015160f81c905092915050565b60006147c28260026157b4565b835110156147e25760405162461bcd60e51b815260040161086490615992565b50016020015160f01c90565b60006147fb8260046157b4565b8351101561481b5760405162461bcd60e51b815260040161086490615992565b50016020015160e01c90565b60006148348260086157b4565b835110156148545760405162461bcd60e51b815260040161086490615992565b50016020015160c01c90565b604080516101808101909152606061016082019081528190815260200160006001600160401b031681526020016000151581526020016148ac6040518060200160405280606081525090565b81526020016148c76040518060200160405280606081525090565b815260200160608152602001600060070b8152602001600060070b81526020016149066040518060400160405280606081526020016000151581525090565b815260200161492a6040518060400160405280606081526020016000151581525090565b815260200161494e6040518060400160405280606081526020016000151581525090565b905290565b50805461495f906151b9565b6000825580601f1061496f575050565b601f01602090049060005260206000209081019061498d91906149c5565b50565b60405180604001604052806149b8604051806040016040528060608152602001600081525090565b8152602001600081525090565b5b808211156149da57600081556001016149c6565b5090565b6001600160401b038116811461498d57600080fd5b60008060408385031215614a0657600080fd5b8235614a11816149de565b946020939093013593505050565b60005b83811015614a3a578181015183820152602001614a22565b50506000910152565b60008151808452614a5b816020860160208601614a1f565b601f01601f19169290920160200192915050565b6001600160401b038716815260e060208201526000614a9160e0830188614a43565b600787810b604085015286810b60608501528551810b60808501526020860151900b60a0840152905082151560c0830152979650505050505050565b634e487b7160e01b600052604160045260246000fd5b604051601f8201601f191681016001600160401b0381118282101715614b0b57614b0b614acd565b604052919050565b60006001600160401b03821115614b2c57614b2c614acd565b50601f01601f191660200190565b600082601f830112614b4b57600080fd5b8135614b5e614b5982614b13565b614ae3565b818152846020838601011115614b7357600080fd5b816020850160208301376000918101602001919091529392505050565b600060208284031215614ba257600080fd5b81356001600160401b03811115614bb857600080fd5b610dcb84828501614b3a565b6000610160808352614bd88184018f614a43565b61ffff8e811660208601528d811660408601528c1660608501526001600160401b038b16608085015283810360a08501529050614c15818a614a43565b90508760070b60c08401528660e0840152828103610100840152614c398187614a43565b915050614c526101208301856001600160401b03169052565b6001600160401b0383166101408301529c9b505050505050505050505050565b60008060408385031215614c8557600080fd5b82356001600160401b0380821115614c9c57600080fd5b9084019060208287031215614cb057600080fd5b604051602081018181108382111715614ccb57614ccb614acd565b604052823582811115614cdd57600080fd5b614ce988828601614b3a565b8252509660209590950135955050505050565b60008060408385031215614d0f57600080fd5b8235614d1a816149de565b91506020830135614d2a816149de565b809150509250929050565b60006020808301818452808551808352604092508286019150828160051b87010184880160005b83811015614dac57888303603f1901855281518051878552614d8088860182614a43565b91890151858303868b0152919050614d988183614a43565b968901969450505090860190600101614d5c565b509098975050505050505050565b60208152600061250d6020830184614a43565b600060208284031215614ddf57600080fd5b5035919050565b803561ffff81168114614df857600080fd5b919050565b600060208284031215614e0f57600080fd5b61250d82614de6565b6020815260008251610160806020850152614e37610180850183614a43565b91506020850151614e4e604086018261ffff169052565b50604085015161ffff8116606086015250606085015161ffff811660808601525060808501516001600160401b03811660a08601525060a0850151601f19808685030160c0870152614ea08483614a43565b935060c08701519150614eb860e087018360070b9052565b60e08701519150610100828188015280880151925050610120818786030181880152614ee48584614a43565b94508088015192505050610140614f05818701836001600160401b03169052565b909501516001600160401b031693019290925250919050565b600080600060608486031215614f3357600080fd5b8335614f3e816149de565b92506020840135614f4e816149de565b915060408401356001600160401b03811115614f6957600080fd5b614f7586828701614b3a565b9150509250925092565b63ffffffff841681526001600160401b0383166020820152606060408201526000614fad6060830184614a43565b95945050505050565b60006020808301818452808551808352604092508286019150828160051b87010184880160005b83811015614dac57603f19898403018552815160e06001600160401b03825116855288820151818a87015261501482870182614a43565b838a0151600790810b888c0152606080860151820b908901526080808601518051830b918a019190915260200151900b60a08089019190915290930151151560c0909601959095525094870194925090860190600101614fdd565b6000602080838503121561508257600080fd5b82356001600160401b038082111561509957600080fd5b818501915085601f8301126150ad57600080fd5b8135818111156150bf576150bf614acd565b8060051b6150ce858201614ae3565b91825283810185019185810190898411156150e857600080fd5b86860192505b83831015615124578235858111156151065760008081fd5b6151148b89838a0101614b3a565b83525091860191908601906150ee565b9998505050505050505050565b6000806040838503121561514457600080fd5b82356001600160401b0381111561515a57600080fd5b61516685828601614b3a565b92505061517560208401614de6565b90509250929050565b60006020828403121561519057600080fd5b81356001600160401b038111156151a657600080fd5b8201610100818503121561250d57600080fd5b600181811c908216806151cd57607f821691505b60208210810361363f57634e487b7160e01b600052602260045260246000fd5b634e487b7160e01b600052601160045260246000fd5b6001600160401b03818116838216019080821115615223576152236151ed565b5092915050565b634e487b7160e01b600052603260045260246000fd5b60006001600160401b0380831681810361525c5761525c6151ed565b6001019392505050565b60008251615278818460208701614a1f565b9190910192915050565b600061ffff80831681810361525c5761525c6151ed565b600781810b9083900b01677fffffffffffffff8113677fffffffffffffff19821217156107e7576107e76151ed565b8481526bffffffffffffffffffffffff198460601b166020820152600083516152f8816034850160208801614a1f565b60f09390931b6001600160f01b03191660349290930191820192909252603601949350505050565b601f82111561286357600081815260208120601f850160051c810160208610156153475750805b601f850160051c820191505b8181101561536657828155600101615353565b505050505050565b600019600383901b1c191660019190911b1790565b81516001600160401b0381111561539c5761539c614acd565b6153b0816153aa84546151b9565b84615320565b602080601f8311600181146153df57600084156153cd5750858301515b6153d7858261536e565b865550615366565b600085815260208120601f198616915b8281101561540e578886015182559484019460019091019084016153ef565b508582101561542c5787850151600019600388901b60f8161c191681555b5050505050600190811b01905550565b6000808335601e1984360301811261545357600080fd5b8301803591506001600160401b0382111561546d57600080fd5b602001915036819003821315613b2457600080fd5b60006020828403121561549457600080fd5b813561250d816149de565b6000602082840312156154b157600080fd5b81358060070b811461250d57600080fd5b8183823760009101908152919050565b8581526bffffffffffffffffffffffff198560601b1660208201528284603483013760f09190911b6001600160f01b031916603491909201908101919091526036019392505050565b6001600160401b0383111561553257615532614acd565b6155468361554083546151b9565b83615320565b6000601f84116001811461557457600085156155625750838201355b61556c868261536e565b8455506155ce565b600083815260209020601f19861690835b828110156155a55786850135825560209485019460019092019101615585565b50868210156155c25760001960f88860031b161c19848701351681555b505060018560011b0183555b5050505050565b8051602080830151919081101561363f5760001960209190910360031b1b16919050565b818103818111156107e7576107e76151ed565b818103615617575050565b61562182546151b9565b6001600160401b0381111561563857615638614acd565b615646816153aa84546151b9565b6000601f82116001811461567457600083156156625750848201545b61566c848261536e565b8555506155ce565b600085815260209020601f19841690600086815260209020845b838110156156ae578286015482556001958601959091019060200161568e565b508583101561542c5793015460001960f8600387901b161c19169092555050600190811b01905550565b634e487b7160e01b600052603160045260246000fd5b600060018201615700576157006151ed565b5060010190565b6000815260008251615720816001850160208701614a1f565b9190910160010192915050565b60006001600160401b0380891683528760208401528087166040840152808616606084015260c0608084015261576660c0840186614a43565b915080841660a084015250979650505050505050565b634e487b7160e01b600052600160045260246000fd5b6000826157af57634e487b7160e01b600052601260045260246000fd5b500690565b808201808211156107e7576107e76151ed565b600782810b9082900b03677fffffffffffffff198112677fffffffffffffff821317156107e7576107e76151ed565b60008060006060848603121561580b57600080fd5b83519250602084015161581d816149de565b60408501519092506001600160401b0381111561583957600080fd5b8401601f8101861361584a57600080fd5b8051615858614b5982614b13565b81815287602083850101111561586d57600080fd5b61587e826020830160208601614a1f565b8093505050509250925092565b80820281158282048414176107e7576107e76151ed565b600181815b808511156158dd5781600019048211156158c3576158c36151ed565b808516156158d057918102915b93841c93908002906158a7565b509250929050565b6000826158f4575060016107e7565b81615901575060006107e7565b816001811461591757600281146159215761593d565b60019150506107e7565b60ff841115615932576159326151ed565b50506001821b6107e7565b5060208310610133831016604e8410600b8410161715615960575081810a6107e7565b61596a83836158a2565b806000190482111561597e5761597e6151ed565b029392505050565b600061250d83836158e5565b602080825260149082015273736c6963696e67206f7574206f662072616e676560601b60408201526060019056fea2646970667358221220b3e99759c0682deb6f4d3786f8fb1b69d38343d15849f06c819e1eca8e54c93364736f6c63430008110033",
  "linkReferences": {},
  "deployedLinkReferences": {}
}