{
  "_format": "hh-sol-artifact-1",
  "contractName": "DealClient",
  "sourceName": "contracts/basic-deal-client/DealClient.sol",
  "abi": [
    {
      "inputs": [],
      "stateMutability": "nonpayable",
      "type": "constructor"
    },
    {
      "inputs": [
        {
          "internalType": "int256",
          "name": "errorCode",
          "type": "int256"
        }
      ],
      "name": "ActorError",
      "type": "error"
    },
    {
      "inputs": [],
      "name": "FailToCallActor",
      "type": "error"
    },
    {
      "inputs": [
        {
          "internalType": "uint64",
          "name": "",
          "type": "uint64"
        }
      ],
      "name": "InvalidCodec",
      "type": "error"
    },
    {
      "inputs": [],
      "name": "InvalidResponseLength",
      "type": "error"
    },
    {
      "inputs": [
        {
          "internalType": "uint256",
          "name": "balance",
          "type": "uint256"
        },
        {
          "internalType": "uint256",
          "name": "value",
          "type": "uint256"
        }
      ],
      "name": "NotEnoughBalance",
      "type": "error"
    },
    {
      "anonymous": false,
      "inputs": [
        {
          "indexed": true,
          "internalType": "bytes32",
          "name": "id",
          "type": "bytes32"
        },
        {
          "indexed": false,
          "internalType": "uint64",
          "name": "size",
          "type": "uint64"
        },
        {
          "indexed": true,
          "internalType": "bool",
          "name": "verified",
          "type": "bool"
        },
        {
          "indexed": false,
          "internalType": "uint256",
          "name": "price",
          "type": "uint256"
        }
      ],
      "name": "DealProposalCreate",
      "type": "event"
    },
    {
      "anonymous": false,
      "inputs": [
        {
          "indexed": false,
          "internalType": "string",
          "name": "text",
          "type": "string"
        }
      ],
      "name": "Log",
      "type": "event"
    },
    {
      "anonymous": false,
      "inputs": [
        {
          "indexed": false,
          "internalType": "string",
          "name": "received",
          "type": "string"
        }
      ],
      "name": "ReceivedDataCap",
      "type": "event"
    },
    {
      "anonymous": false,
      "inputs": [
        {
          "indexed": false,
          "internalType": "bytes32",
          "name": "id",
          "type": "bytes32"
        }
      ],
      "name": "UniqId",
      "type": "event"
    },
    {
      "inputs": [],
      "name": "AUTHENTICATE_MESSAGE_METHOD_NUM",
      "outputs": [
        {
          "internalType": "uint64",
          "name": "",
          "type": "uint64"
        }
      ],
      "stateMutability": "view",
      "type": "function"
    },
    {
      "inputs": [],
      "name": "DATACAP_RECEIVER_HOOK_METHOD_NUM",
      "outputs": [
        {
          "internalType": "uint64",
          "name": "",
          "type": "uint64"
        }
      ],
      "stateMutability": "view",
      "type": "function"
    },
    {
      "inputs": [],
      "name": "MARKET_NOTIFY_DEAL_METHOD_NUM",
      "outputs": [
        {
          "internalType": "uint64",
          "name": "",
          "type": "uint64"
        }
      ],
      "stateMutability": "view",
      "type": "function"
    },
    {
      "inputs": [],
      "name": "ONE_MONTH",
      "outputs": [
        {
          "internalType": "int64",
          "name": "",
          "type": "int64"
        }
      ],
      "stateMutability": "view",
      "type": "function"
    },
    {
      "inputs": [
        {
          "components": [
            {
              "internalType": "bytes",
              "name": "data",
              "type": "bytes"
            }
          ],
          "internalType": "struct CommonTypes.FilAddress",
          "name": "client",
          "type": "tuple"
        },
        {
          "internalType": "uint256",
          "name": "value",
          "type": "uint256"
        }
      ],
      "name": "addBalance",
      "outputs": [],
      "stateMutability": "nonpayable",
      "type": "function"
    },
    {
      "inputs": [
        {
          "internalType": "bytes",
          "name": "",
          "type": "bytes"
        }
      ],
      "name": "backupItems",
      "outputs": [
        {
          "internalType": "uint16",
          "name": "totalDealCount",
          "type": "uint16"
        },
        {
          "internalType": "uint16",
          "name": "atLeast1MonthDealCount",
          "type": "uint16"
        },
        {
          "internalType": "uint16",
          "name": "targetRedundancy",
          "type": "uint16"
        },
        {
          "internalType": "uint64",
          "name": "pieceSize",
          "type": "uint64"
        },
        {
          "internalType": "string",
          "name": "label",
          "type": "string"
        },
        {
          "internalType": "int64",
          "name": "dealDuration",
          "type": "int64"
        },
        {
          "internalType": "uint256",
          "name": "maxPricePerEpoch",
          "type": "uint256"
        },
        {
          "internalType": "string",
          "name": "originalLocation",
          "type": "string"
        },
        {
          "internalType": "uint64",
          "name": "carSize",
          "type": "uint64"
        },
        {
          "internalType": "uint64",
          "name": "dealArrayId",
          "type": "uint64"
        }
      ],
      "stateMutability": "view",
      "type": "function"
    },
    {
      "inputs": [
        {
          "internalType": "uint16",
          "name": "newValue",
          "type": "uint16"
        }
      ],
      "name": "changeDefaultTargetRedundancy",
      "outputs": [],
      "stateMutability": "nonpayable",
      "type": "function"
    },
    {
      "inputs": [
        {
          "internalType": "uint64",
          "name": "",
          "type": "uint64"
        },
        {
          "internalType": "uint256",
          "name": "",
          "type": "uint256"
        }
      ],
      "name": "dealArrays",
      "outputs": [
        {
          "internalType": "uint64",
          "name": "dealId",
          "type": "uint64"
        },
        {
          "internalType": "bytes",
          "name": "providerAddress",
          "type": "bytes"
        },
        {
          "internalType": "int64",
          "name": "startEpoch",
          "type": "int64"
        },
        {
          "internalType": "int64",
          "name": "endEpoch",
          "type": "int64"
        },
        {
          "components": [
            {
              "internalType": "int64",
              "name": "activated",
              "type": "int64"
            },
            {
              "internalType": "int64",
              "name": "terminated",
              "type": "int64"
            }
          ],
          "internalType": "struct MarketTypes.GetDealActivationReturn",
          "name": "status",
          "type": "tuple"
        },
        {
          "internalType": "bool",
          "name": "isActivated",
          "type": "bool"
        }
      ],
      "stateMutability": "view",
      "type": "function"
    },
    {
      "inputs": [
        {
          "internalType": "bytes32",
          "name": "",
          "type": "bytes32"
        }
      ],
      "name": "dealProposals",
      "outputs": [
        {
          "internalType": "bytes",
          "name": "",
          "type": "bytes"
        }
      ],
      "stateMutability": "view",
      "type": "function"
    },
    {
      "inputs": [
        {
          "internalType": "bytes",
          "name": "commP",
          "type": "bytes"
        }
      ],
      "name": "getBackupItem",
      "outputs": [
        {
          "components": [
            {
              "internalType": "uint16",
              "name": "totalDealCount",
              "type": "uint16"
            },
            {
              "internalType": "uint16",
              "name": "atLeast1MonthDealCount",
              "type": "uint16"
            },
            {
              "internalType": "uint16",
              "name": "targetRedundancy",
              "type": "uint16"
            },
            {
              "internalType": "uint64",
              "name": "pieceSize",
              "type": "uint64"
            },
            {
              "internalType": "string",
              "name": "label",
              "type": "string"
            },
            {
              "internalType": "int64",
              "name": "dealDuration",
              "type": "int64"
            },
            {
              "internalType": "uint256",
              "name": "maxPricePerEpoch",
              "type": "uint256"
            },
            {
              "internalType": "string",
              "name": "originalLocation",
              "type": "string"
            },
            {
              "internalType": "uint64",
              "name": "carSize",
              "type": "uint64"
            },
            {
              "internalType": "uint64",
              "name": "dealArrayId",
              "type": "uint64"
            }
          ],
          "internalType": "struct BackupItem",
          "name": "",
          "type": "tuple"
        }
      ],
      "stateMutability": "view",
      "type": "function"
    },
    {
      "inputs": [
        {
          "internalType": "bytes32",
          "name": "proposalId",
          "type": "bytes32"
        }
      ],
      "name": "getCommpFromId",
      "outputs": [
        {
          "internalType": "bytes",
          "name": "",
          "type": "bytes"
        }
      ],
      "stateMutability": "view",
      "type": "function"
    },
    {
      "inputs": [
        {
          "internalType": "bytes32",
          "name": "proposalId",
          "type": "bytes32"
        }
      ],
      "name": "getDealProposal",
      "outputs": [
        {
          "internalType": "bytes",
          "name": "",
          "type": "bytes"
        }
      ],
      "stateMutability": "view",
      "type": "function"
    },
    {
      "inputs": [
        {
          "internalType": "bytes",
          "name": "commP",
          "type": "bytes"
        }
      ],
      "name": "getDeals",
      "outputs": [
        {
          "components": [
            {
              "internalType": "uint64",
              "name": "dealId",
              "type": "uint64"
            },
            {
              "internalType": "bytes",
              "name": "providerAddress",
              "type": "bytes"
            },
            {
              "internalType": "int64",
              "name": "startEpoch",
              "type": "int64"
            },
            {
              "internalType": "int64",
              "name": "endEpoch",
              "type": "int64"
            },
            {
              "components": [
                {
                  "internalType": "int64",
                  "name": "activated",
                  "type": "int64"
                },
                {
                  "internalType": "int64",
                  "name": "terminated",
                  "type": "int64"
                }
              ],
              "internalType": "struct MarketTypes.GetDealActivationReturn",
              "name": "status",
              "type": "tuple"
            },
            {
              "internalType": "bool",
              "name": "isActivated",
              "type": "bool"
            }
          ],
          "internalType": "struct BackupItemDeal[]",
          "name": "",
          "type": "tuple[]"
        }
      ],
      "stateMutability": "view",
      "type": "function"
    },
    {
      "inputs": [],
      "name": "getDefaultTargetRedundancy",
      "outputs": [
        {
          "internalType": "uint16",
          "name": "",
          "type": "uint16"
        }
      ],
      "stateMutability": "view",
      "type": "function"
    },
    {
      "inputs": [
        {
          "internalType": "bytes32",
          "name": "proposalId",
          "type": "bytes32"
        }
      ],
      "name": "getExtraParams",
      "outputs": [
        {
          "internalType": "bytes",
          "name": "extra_params",
          "type": "bytes"
        }
      ],
      "stateMutability": "view",
      "type": "function"
    },
    {
      "inputs": [
        {
          "internalType": "uint64",
          "name": "method",
          "type": "uint64"
        },
        {
          "internalType": "uint64",
          "name": "",
          "type": "uint64"
        },
        {
          "internalType": "bytes",
          "name": "params",
          "type": "bytes"
        }
      ],
      "name": "handle_filecoin_method",
      "outputs": [
        {
          "internalType": "uint32",
          "name": "",
          "type": "uint32"
        },
        {
          "internalType": "uint64",
          "name": "",
          "type": "uint64"
        },
        {
          "internalType": "bytes",
          "name": "",
          "type": "bytes"
        }
      ],
      "stateMutability": "nonpayable",
      "type": "function"
    },
    {
      "inputs": [],
      "name": "keepTargetRedundancy",
      "outputs": [],
      "stateMutability": "nonpayable",
      "type": "function"
    },
    {
      "inputs": [],
      "name": "owner",
      "outputs": [
        {
          "internalType": "address",
          "name": "",
          "type": "address"
        }
      ],
      "stateMutability": "view",
      "type": "function"
    },
    {
      "inputs": [],
      "name": "refreshMetadataForAll",
      "outputs": [],
      "stateMutability": "nonpayable",
      "type": "function"
    },
    {
      "inputs": [
        {
          "internalType": "bytes",
          "name": "commP",
          "type": "bytes"
        }
      ],
      "name": "refreshMetadataForBackupItem",
      "outputs": [],
      "stateMutability": "nonpayable",
      "type": "function"
    },
    {
      "inputs": [
        {
          "components": [
            {
              "internalType": "bytes",
              "name": "pieceCID",
              "type": "bytes"
            },
            {
              "internalType": "uint64",
              "name": "pieceSize",
              "type": "uint64"
            },
            {
              "internalType": "string",
              "name": "label",
              "type": "string"
            },
            {
              "internalType": "int64",
              "name": "dealDuration",
              "type": "int64"
            },
            {
              "internalType": "uint256",
              "name": "maxPricePerEpoch",
              "type": "uint256"
            },
            {
              "internalType": "string",
              "name": "originalLocation",
              "type": "string"
            },
            {
              "internalType": "uint64",
              "name": "carSize",
              "type": "uint64"
            }
          ],
          "internalType": "struct BackupRequest",
          "name": "backupMeta",
          "type": "tuple"
        }
      ],
      "name": "startBackup",
      "outputs": [
        {
          "internalType": "bool",
          "name": "",
          "type": "bool"
        }
      ],
      "stateMutability": "nonpayable",
      "type": "function"
    },
    {
      "inputs": [
        {
          "components": [
            {
              "internalType": "bytes",
              "name": "data",
              "type": "bytes"
            }
          ],
          "internalType": "struct CommonTypes.FilAddress",
          "name": "client",
          "type": "tuple"
        },
        {
          "internalType": "uint256",
          "name": "value",
          "type": "uint256"
        }
      ],
      "name": "withdrawBalance",
      "outputs": [
        {
          "internalType": "uint256",
          "name": "",
          "type": "uint256"
        }
      ],
      "stateMutability": "nonpayable",
      "type": "function"
    }
  ],
  "bytecode": "0x6080604052600380546001600160501b0319166802000000000000000017905534801561002b57600080fd5b5060038054600160501b600160f01b031916336a0100000000000000000000021790556149048061005d6000396000f3fe608060405234801561001057600080fd5b50600436106101415760003560e01c806370c44f53116100b85780638da5cb5b1161007c5780638da5cb5b1461031a5780638f915d93146101fa5780639f1a1fb31461034c578063b34ba2521461035f578063f4b2e4d81461036a578063f71c29cc1461037d57600080fd5b806370c44f531461028f57806374112d66146102a2578063785602cc146102b5578063868e10c4146102d85780638993dcda146102fa57600080fd5b80634108848f1161010a5780634108848f146101fa578063413428bd146101fc5780634634aed51461021c5780634dc326e61461022f5780636067f454146102645780636b38eda71461026f57600080fd5b806270679014610146578063028a67851461016e5780631bb858b31461019357806320988cef146101bc5780632b2a8abb146101d9575b600080fd5b610151639d8b067881565b6040516001600160401b0390911681526020015b60405180910390f35b61018161017c366004613c75565b61039e565b60405161016596959493929190613cf1565b6101a66101a1366004613e12565b6104af565b6040516101659a99989796959493929190613e46565b6101c66201518081565b60405160079190910b8152602001610165565b6101ec6101e7366004613ece565b610651565b604051908152602001610165565b005b61020f61020a366004613f58565b6106b3565b6040516101659190613f71565b61020f61022a366004613f58565b610757565b6101fa61023d366004613f84565b6003805461ffff909216600160401b0269ffff000000000000000019909216919091179055565b61015163f98c996681565b61028261027d366004613e12565b610901565b6040516101659190613fa8565b6101fa61029d366004613e12565b610b25565b61020f6102b0366004613f58565b610e93565b6102c86102c336600461408d565b610f2d565b6040519015158152602001610165565b6102eb6102e63660046140c7565b6113c1565b60405161016593929190614128565b61030d610308366004613e12565b6114cd565b604051610165919061415f565b60035461033490600160501b90046001600160a01b031681565b6040516001600160a01b039091168152602001610165565b6101fa61035a366004613ece565b61166f565b61015163de180de381565b61020f610378366004613f58565b61169b565b600354600160401b900461ffff1660405161ffff9091168152602001610165565b600260205281600052604060002081815481106103ba57600080fd5b6000918252602090912060059091020180546001820180546001600160401b0390921694509192506103eb90614226565b80601f016020809104026020016040519081016040528092919081815260200182805461041790614226565b80156104645780601f1061043957610100808354040283529160200191610464565b820191906000526020600020905b81548152906001019060200180831161044757829003601f168201915b5050506002840154604080518082019091526003860154600781810b8352600160401b91829004810b6020840152600490970154959683810b969190930490920b9350915060ff1686565b8051602081830181018051600180835293830192909401919091209290528154908201805461ffff80841694620100008504821694600160201b810490921693600160301b9092046001600160401b03169290919061050d90614226565b80601f016020809104026020016040519081016040528092919081815260200182805461053990614226565b80156105865780601f1061055b57610100808354040283529160200191610586565b820191906000526020600020905b81548152906001019060200180831161056957829003601f168201915b5050505050908060020160009054906101000a900460070b908060030154908060040180546105b490614226565b80601f01602080910402602001604051908101604052809291908181526020018280546105e090614226565b801561062d5780601f106106025761010080835404028352916020019161062d565b820191906000526020600020905b81548152906001019060200180831161061057829003601f168201915b505050600590930154919250506001600160401b0380821691600160401b9004168a565b600354600090600160501b90046001600160a01b0316331461067257600080fd5b6000604051806040016040528085815260200161068e85611937565b90529050600061069d8261197d565b90506106a8816119c1565b925050505b92915050565b6000818152602081905260408120805460609291906106d190614226565b80601f01602080910402602001604051908101604052809291908181526020018280546106fd90614226565b801561074a5780601f1061071f5761010080835404028352916020019161074a565b820191906000526020600020905b81548152906001019060200180831161072d57829003601f168201915b5093979650505050505050565b60008181526020819052604081208054606092919061077590614226565b80601f01602080910402602001604051908101604052809291908181526020018280546107a190614226565b80156107ee5780601f106107c3576101008083540402835291602001916107ee565b820191906000526020600020905b8154815290600101906020018083116107d157829003601f168201915b5050505050905060006040518060800160405280600184604051610812919061425a565b9081526020016040518091039020600401805461082e90614226565b80601f016020809104026020016040519081016040528092919081815260200182805461085a90614226565b80156108a75780601f1061087c576101008083540402835291602001916108a7565b820191906000526020600020905b81548152906001019060200180831161088a57829003601f168201915b505050505081526020016001846040516108c1919061425a565b9081526040805160209281900383019020600501546001600160401b031683526000918301829052919091015290506108f9816119e8565b949350505050565b604080516101408101825260008082526020820181905281830181905260608083018290526080830181905260a0830182905260c0830182905260e08301526101008201819052610120820152905160019061095e90849061425a565b908152604080516020928190038301812061014082018352805461ffff8082168452620100008204811695840195909552600160201b810490941692820192909252600160301b9092046001600160401b031660608301526001810180546080840191906109cb90614226565b80601f01602080910402602001604051908101604052809291908181526020018280546109f790614226565b8015610a445780601f10610a1957610100808354040283529160200191610a44565b820191906000526020600020905b815481529060010190602001808311610a2757829003601f168201915b5050509183525050600282015460070b602082015260038201546040820152600482018054606090920191610a7890614226565b80601f0160208091040260200160405190810160405280929190818152602001828054610aa490614226565b8015610af15780601f10610ac657610100808354040283529160200191610af1565b820191906000526020600020905b815481529060010190602001808311610ad457829003601f168201915b5050509183525050600591909101546001600160401b038082166020840152600160401b9091041660409091015292915050565b6000600182604051610b37919061425a565b908152604051908190036020019020600501546001600160401b03600160401b909104169050600080805b6001600160401b03841660009081526002602052604090205461ffff82161015610e19576001600160401b0384166000908152600260205260408120805461ffff8416908110610bb457610bb4614276565b60009182526020909120600590910201546001600160401b03169050610bd981611a50565b6001600160401b0386166000908152600260205260409020805461ffff8516908110610c0757610c07614276565b600091825260208083208451600593909302016003018054948201516001600160401b039384166001600160801b031990961695909517600160401b958416959095029490941790935587168152600290915260408120805461ffff8516908110610c7457610c74614276565b600091825260209091206003600590920201015460070b138015610ce557506001600160401b038516600090815260026020526040902080546001919061ffff8516908110610cc557610cc5614276565b6000918252602090912060036005909202010154600160401b900460070b125b15610dd35783610cf4816142a2565b6001600160401b03871660009081526002602052604090208054919650600192509061ffff8516908110610d2a57610d2a614276565b906000526020600020906005020160040160006101000a81548160ff0219169083151502179055504360070b6201518060026000886001600160401b03166001600160401b031681526020019081526020016000208461ffff1681548110610d9457610d94614276565b6000918252602090912060026005909202010154610dbc9190600160401b900460070b6142c3565b60070b1315610dd35782610dcf816142a2565b9350505b6001600160401b0385166000908152600260205260408120805461ffff8516908110610e0157610e01614276565b50600052505080610e11816142a2565b915050610b62565b5081600185604051610e2b919061425a565b908152604051908190036020018120805461ffff9390931661ffff19909316929092179091558190600190610e6190879061425a565b908152604051908190036020019020805461ffff92909216620100000263ffff00001990921691909117905550505050565b60006020819052908152604090208054610eac90614226565b80601f0160208091040260200160405190810160405280929190818152602001828054610ed890614226565b8015610f255780601f10610efa57610100808354040283529160200191610f25565b820191906000526020600020905b815481529060010190602001808311610f0857829003601f168201915b505050505081565b60007fcf34ef537ac33ee1ac626ca1587a0a7e8e51561e5514f8cb36afa1c5102b3bab604051610f7f906020808252600e908201526d109858dadd5c081cdd185c9d195960921b604082015260600190565b60405180910390a1600354600160501b90046001600160a01b03163314610fa557600080fd5b60408051610140810182526000808252602080830191909152600354600160401b900461ffff168284015290916060830191610fe59186019086016142f2565b6001600160401b03168152602001611000604085018561430f565b8080601f01602080910402602001604051908101604052809392919081815260200183838082843760009201919091525050509082525060200161104a6080850160608601614355565b60070b81526080840135602082015260400161106960a085018561430f565b8080601f0160208091040260200160405190810160405280939291908181526020018383808284376000920191909152505050908252506020016110b360e0850160c086016142f2565b6001600160401b0390811682526003541660209091015260016110d6848061430f565b6040516110e4929190614378565b9081526040805191829003602090810190922083518154938501519285015160608601516001600160401b0316600160301b026dffffffffffffffff0000000000001961ffff928316600160201b02166dffffffffffffffffffff0000000019958316620100000263ffffffff1990971692909316919091179490941792909216919091179190911781556080820151600182019061118390826143d6565b5060a082015160028201805467ffffffffffffffff19166001600160401b0390921691909117905560c0820151600382015560e082015160048201906111c990826143d6565b5061010082015160059091018054610120909301516001600160401b03908116600160401b026001600160801b0319909416928116929092179290921790915560035461121891166001614495565b6003805467ffffffffffffffff19166001600160401b039290921691909117905560006001611247848061430f565b604051611255929190614378565b908152604051908190036020019020600501546001600160401b03600160401b90910416905060005b600161128a858061430f565b604051611298929190614378565b9081526040519081900360200190205461ffff600160201b909104811690821610156113b757600042336112cc878061430f565b856040516020016112e19594939291906144bc565b60408051601f1981840301815290829052805160209182012080835292507fa1c1563537b433fe1b334e80c2a29a51035fdbd0290bf5bd4fdf9fee6ef00cab910160405180910390a1611334858061430f565b60008381526020819052604090209161134e919083614505565b506000817ffd6419d07e4c269e58d0c63969756c2124155b4a8d6dd08b8cd46e3a9acbf6256113836040890160208a016142f2565b604080516001600160401b039092168252600060208301520160405180910390a350806113af816142a2565b91505061127e565b5060019392505050565b60008060608082639d8b0677196001600160401b03891601611414576113e686611a9d565b60006113f26001611b3f565b90506113ff816001611b60565b61140881611b77565b925060519150506114bd565b63f98c9965196001600160401b038916016114375761143286611bc2565b6114bd565b63de180de2196001600160401b038916016114555761143286612048565b60405162461bcd60e51b815260206004820152603260248201527f7468652066696c65636f696e206d6574686f642074686174207761732063616c6044820152711b1959081a5cc81b9bdd081a185b991b195960721b60648201526084015b60405180910390fd5b6000989097509095509350505050565b606060006001836040516114e1919061425a565b908152604080519182900360209081018320600501546001600160401b03600160401b9091041660008181526002835283812080548085028701850190955284865291955090929184015b828210156116635760008481526020908190206040805160c081019091526005850290910180546001600160401b03168252600181018054929391929184019161157590614226565b80601f01602080910402602001604051908101604052809291908181526020018280546115a190614226565b80156115ee5780601f106115c3576101008083540402835291602001916115ee565b820191906000526020600020905b8154815290600101906020018083116115d157829003601f168201915b50505091835250506002820154600781810b602080850191909152600160401b92839004820b6040808601919091528051808201909152600386015480840b82529390930490910b82820152606083019190915260049092015460ff161515608090910152908252600192909201910161152c565b50505050915050919050565b600354600160501b90046001600160a01b0316331461168d57600080fd5b61169782826120a6565b5050565b6000818152602081905260408120805460609291906116b990614226565b80601f01602080910402602001604051908101604052809291908181526020018280546116e590614226565b80156117325780601f1061170757610100808354040283529160200191611732565b820191906000526020600020905b81548152906001019060200180831161171557829003601f168201915b50505050509050600060c890506000814361174d91906142c3565b90506000600184604051611761919061425a565b908152604051908190036020019020600201546117819060070b836142c3565b905061178b613b35565b604080516020810182528681528252516001906117a990879061425a565b908152604080516020928190038301902054600160301b90046001600160401b031683830152600083820152805180830182526060908190528151928301825261020560f11b8383015230901b6bffffffffffffffffffffffff1916604283015280516036818403018152605683019091528152606082015261182c60006120f4565b608082015260405160019061184290879061425a565b9081526020016040518091039020600101805461185e90614226565b80601f016020809104026020016040519081016040528092919081815260200182805461188a90614226565b80156118d75780601f106118ac576101008083540402835291602001916118d7565b820191906000526020600020905b8154815290600101906020018083116118ba57829003601f168201915b505050505060a0820152600783810b60c083015282900b60e08201526118fd6000611937565b61010082015261190d6000611937565b61012082015261191d6000611937565b61014082015261192c81612149565b979650505050505050565b604080518082019091526060815260006020820152600061195983600061223d565b60408051808201909152815181526020918201511515918101919091529392505050565b604080518082019091526060815260006020820152600061199d83612290565b905060006119b660056387ed0a646051856000806122c9565b90506108f9816123bf565b6000806119d683600001518460200151612423565b9050600081600001516108f9906145c5565b606060006119f66040611b3f565b9050611a03816004612455565b8251611a10908290612461565b6020830151611a2090829061247a565b6040830151611a30908290611b60565b6060830151611a40908290611b60565b611a4981611b77565b9392505050565b60408051808201909152600080825260208201526000611a78836001600160401b0316612486565b90506000611a926005639904f2ff605185600060016122c9565b90506108f9816124a0565b6000611aa882612504565b90506000611ab98260200151612560565b805151604051919250600091600191611ad19161425a565b9081526040519081900360200190205461ffff600160201b9091041611611b3a5760405162461bcd60e51b815260206004820181905260248201527f436f6d6d50206d75737420657869737420696e206261636b75704974656d732160448201526064016114b4565b505050565b611b47613c28565b8051611b53908361279c565b5060006020820152919050565b6116978282611b70576014612813565b6015612813565b60608160200151600014611bbc5760405162461bcd60e51b815260206004820152600c60248201526b24b73b30b634b21021a127a960a11b60448201526064016114b4565b50515190565b6000611bcd82612822565b90506000611bde8260000151612560565b805151604051919250600091600191611bf69161425a565b9081526040519081900360200190205461ffff600160201b9091041611611c5f5760405162461bcd60e51b815260206004820181905260248201527f436f6d6d50206d75737420657869737420696e206261636b75704974656d732160448201526064016114b4565b600080600260006001856000015160000151604051611c7e919061425a565b908152602001604051809103902060050160089054906101000a90046001600160401b03166001600160401b03166001600160401b03168152602001908152602001600020805480602002602001604051908101604052809291908181526020016000905b82821015611e1a5760008481526020908190206040805160c081019091526005850290910180546001600160401b031682526001810180549293919291840191611d2c90614226565b80601f0160208091040260200160405190810160405280929190818152602001828054611d5890614226565b8015611da55780601f10611d7a57610100808354040283529160200191611da5565b820191906000526020600020905b815481529060010190602001808311611d8857829003601f168201915b50505091835250506002820154600781810b602080850191909152600160401b92839004820b6040808601919091528051808201909152600386015480840b82529390930490910b82820152606083019190915260049092015460ff1615156080909101529082526001929092019101611ce3565b50505050905060005b8151811015611e815784602001516001600160401b0316828281518110611e4c57611e4c614276565b6020026020010151600001516001600160401b031603611e6f5760019250611e81565b80611e79816145e9565b915050611e23565b508115611ede5760405162461bcd60e51b815260206004820152602560248201527f50726f766964657220697320616c72656164792073746f72696e672074686973604482015264206461746160d81b60648201526084016114b4565b825151604051600291600091600191611ef69161425a565b9081526040805160209281900383019020600590810154600160401b90046001600160401b039081168552848401959095529281016000908120825160c080820185528b8601518816825260808b81015151838801908152918c0151600790810b8488015260e08d0151900b606084015285518087019096526000198087528688015282019490945260a0810183905281546001808201845592845294909220825194909502909401805467ffffffffffffffff19169390951692909217845551909291820190611fc790826143d6565b50604082015160028201805460608501516001600160401b039384166001600160801b031992831617600160401b918516820217909255608085015180516003860180546020909301519186169290931691909117931690910291909117905560a0909101516004909101805460ff19169115159190911790555050505050565b7f10aa319ed8cad9bceb033c0c2788c4ae17469ac844e4c6e2c2e20e74ca8a7be860405161209b90602080825260119082015270446174614361702052656365697665642160781b604082015260600190565b60405180910390a150565b60006120b183612888565b905060006120ca6005633105f1a66051858760006122c9565b905080516000146120ee57604051630e74990760e01b815260040160405180910390fd5b50505050565b604080516020810190915260608152600061210e836128a6565b9050604051806020016040528082600001516040516020016121309190614602565b60408051601f1981840301815291905290529392505050565b606060006121576040611b3f565b905061216481600b612455565b8251516040516121919161217a91602001614602565b60408051601f19818403018152919052829061291a565b60208301516121a190829061247a565b60408301516121b1908290611b60565b6060830151516121c290829061293c565b6080830151516121d390829061293c565b60a08301516121e3908290612461565b60c08301516121f3908290612949565b60e0830151612203908290612949565b61221b612214846101000151612977565b829061293c565b61222c612214846101200151612977565b611a40612214846101400151612977565b612263604051806060016040528060608152602001600015158152602001600081525090565b611a498360405160200161227991815260200190565b604051602081830303815290604052836000612a8d565b6060600061229e6040611b3f565b90506122ab816002612455565b8251516122b990829061293c565b611a406122148460200151612977565b606047838110156122f757604051634787a10360e11b815260048101829052602481018590526044016114b4565b6000806005607f60991b01898787612310576000612313565b60015b8b8b8f60405160200161232b96959493929190614628565b60408051601f19818403018152908290526123459161425a565b600060405180830381855af49150503d8060008114612380576040519150601f19603f3d011682016040523d82523d6000602084013e612385565b606091505b5091509150816123a857604051638a7db5bf60e01b815260040160405180910390fd5b6123b181612b67565b9a9950505050505050505050565b6040805180820190915260608082526000602083018190528351156123fd576123e88482612c4a565b81519193509150156123fd576108f982612e00565b505060408051600081830181815260608301909352918152602081019190915292915050565b612449604051806060016040528060608152602001600015158152602001600081525090565b611a4983836000612a8d565b61169782600483612f5c565b61246e8260038351612f63565b8151611b3a908261307c565b61169782600083612f63565b606060006124946040611b3f565b9050611a40818461247a565b60408051808201909152600080825260208201526000806124c1848261309d565b92509050600281146124d5576124d5614677565b6124df8483613119565b60079190910b845291506124f38483613119565b5060070b6020840152509092915050565b6040805180820190915260608082526020820152600080612525848261309d565b925090506002811461253957612539614677565b6125438483612c4a565b90845291506125528483612c4a565b506020840152509092915050565b612568613b35565b600080612575848261309d565b92509050600b811461258957612589614677565b60606125958584612c4a565b8094508192505050806000815181106125b0576125b0614276565b01602001516001600160f81b031916156125cc576125cc614677565b600181516125da919061468d565b6001600160401b038111156125f1576125f1613d4f565b6040519080825280601f01601f19166020018201604052801561261b576020820181803683370190505b5084515260015b81518110156126965781818151811061263d5761263d614276565b01602001518551516001600160f81b03199091169061265d60018461468d565b8151811061266d5761266d614276565b60200101906001600160f81b031916908160001a9053508061268e816145e9565b915050612622565b506126a185846131b6565b6001600160401b03909116602086015292506126bd8584613235565b901515604086015292506126d18584612c4a565b60608601519190915292506126e68584612c4a565b60808601519190915292506126fb85846132d0565b60a0860191909152925061270f8584613119565b60079190910b60c086015292506127268584613119565b60079190910b60e08601529250606061273f8685612c4a565b9450905061274c81612e00565b610100860152606061275e8786612c4a565b9550905061276b81612e00565b610120870152606061277d8887612c4a565b9650905061278a81612e00565b61014088015250949695505050505050565b6040805180820190915260608152600060208201526127bc6020836146a0565b156127e4576127cc6020836146a0565b6127d790602061468d565b6127e190836146c2565b91505b60208084018390526040518085526000815290818401018181101561280857600080fd5b604052509192915050565b8151611b3a9060e08317613417565b604080518082019091526060815260006020820152600080612844848261309d565b925090506002811461285857612858614677565b6128628483612c4a565b908452915061287184836131b6565b506001600160401b03166020840152509092915050565b606060006128966040611b3f565b8351909150611a4090829061293c565b6040805180820190915260608152600060208201526040805180820190915260608152600060208201525b6701ffffffffffffff600784901c1692607f166000849003612900576128f78282613417565b50909392505050565b61290d8260808317613417565b50506128d1565b50919050565b81516129279060d8613417565b50815161293590602a613417565b5061169782825b61246e8260028351612f63565b60008160070b126129605761169782600083612f63565b611697826001612972846000196146d5565b612f63565b80515160609060009061298b9060016146c2565b6001600160401b038111156129a2576129a2613d4f565b6040519080825280601f01601f1916602001820160405280156129cc576020820181803683370190505b5090508260200151151560011515146129e65760006129ec565b600160f81b5b816000815181106129ff576129ff614276565b60200101906001600160f81b031916908160001a905350600160005b8451518110156128f7578451805182908110612a3957612a39614276565b602001015160f81c60f81b838381518110612a5657612a56614276565b60200101906001600160f81b031916908160001a90535081612a77816145e9565b9250508080612a85906145e9565b915050612a1b565b612ab3604051806060016040528060608152602001600015158152602001600081525090565b60208401845160006040516000602084061460018114612ae557601f8416602090810380860184528301019250612aef565b6020820192508382525b508282848660046101c2fa5060208151018101604052805193505b60208414612b365760208101511560018114612b265750612b36565b50601f1990930192602001612b0a565b92835250508152602081018390528115612b505781612b5b565b8051612b5b90613480565b60408201529392505050565b6060600080600084806020019051810190612b829190614704565b919450925090506001600160401b038216612bbc57805115612bb757604051630e74990760e01b815260040160405180910390fd5b612c28565b6001600160401b03821660511480612bdd57506001600160401b0382166071145b15612c04578051600003612bb757604051630e74990760e01b815260040160405180910390fd5b60405163f1f6bced60e01b81526001600160401b03831660048201526024016114b4565b82156108f95760405163d4bb667160e01b8152600481018490526024016114b4565b60606000806000612c5b86866134b8565b96509092506001600160401b0316905060ff821660061480612c80575060ff82166002145b612ce35760405162461bcd60e51b815260206004820152602e60248201527f696e76616c6964206d616a20286578706563746564204d616a546167206f722060448201526d4d616a42797465537472696e672960901b60648201526084016114b4565b60051960ff831601612d1c57612cf986866134b8565b96509092506001600160401b0316905060ff8216600214612d1c57612d1c614677565b6000612d2882876146c2565b90506000826001600160401b03811115612d4457612d44613d4f565b6040519080825280601f01601f191660200182016040528015612d6e576020820181803683370190505b5090506000875b83811015612de357898181518110612d8f57612d8f614276565b602001015160f81c60f81b838381518110612dac57612dac614276565b60200101906001600160f81b031916908160001a90535081612dcd816145e9565b9250508080612ddb906145e9565b915050612d75565b5081612def858a6146c2565b9650965050505050505b9250929050565b6040805180820190915260608152600060208201528151600003612e49575050604080516080810182526001918101918252600060608201819052918152602081019190915290565b600060018351612e59919061468d565b6001600160401b03811115612e7057612e70613d4f565b6040519080825280601f01601f191660200182016040528015612e9a576020820181803683370190505b509050600083600081518110612eb257612eb2614276565b01602001516001600160f81b031916600160f81b03612ecf575060015b60015b8451811015612f4157848181518110612eed57612eed614276565b01602001516001600160f81b03191683612f0860018461468d565b81518110612f1857612f18614276565b60200101906001600160f81b031916908160001a90535080612f39816145e9565b915050612ed2565b50604080518082019091529182521515602082015292915050565b611b3a8383835b6017816001600160401b031611612f895782516120ee9060e0600585901b168317613417565b60ff816001600160401b031611612fc9578251612fb1906018611fe0600586901b1617613417565b5082516120ee906001600160401b0383166001613692565b61ffff816001600160401b03161161300a578251612ff2906019611fe0600586901b1617613417565b5082516120ee906001600160401b0383166002613692565b63ffffffff816001600160401b03161161304d57825161303590601a611fe0600586901b1617613417565b5082516120ee906001600160401b0383166004613692565b825161306490601b611fe0600586901b1617613417565b5082516120ee906001600160401b0383166008613692565b604080518082019091526060815260006020820152611a4983838451613717565b6000806000806130ad86866134b8565b96509092506001600160401b0316905060ff82166004146131105760405162461bcd60e51b815260206004820152601f60248201527f696e76616c6964206d616a20286578706563746564204d616a4172726179290060448201526064016114b4565b95939450505050565b60008060008061312986866134b8565b96509092506001600160401b0316905060ff82166001148061314c575060ff8216155b6131105760405162461bcd60e51b815260206004820152603560248201527f696e76616c6964206d616a20286578706563746564204d616a5369676e6564496044820152746e74206f72204d616a556e7369676e6564496e742960581b60648201526084016114b4565b6000806000806131c686866134b8565b96509092506001600160401b0316905060ff8216156131105760405162461bcd60e51b815260206004820152602560248201527f696e76616c6964206d616a20286578706563746564204d616a556e7369676e6560448201526464496e742960d81b60648201526084016114b4565b60008060008061324586866134b8565b96509092506001600160401b0316905060ff82166007146132a85760405162461bcd60e51b815260206004820152601f60248201527f696e76616c6964206d616a20286578706563746564204d616a4f74686572290060448201526064016114b4565b60158114806132b75750601481145b6132c3576132c3614677565b6014141595939450505050565b606060008060006132e186866134b8565b96509092506001600160401b0316905060ff82166003146133505760405162461bcd60e51b8152602060048201526024808201527f696e76616c6964206d616a20286578706563746564204d616a54657874537472604482015263696e672960e01b60648201526084016114b4565b600061335c82876146c2565b90506000826001600160401b0381111561337857613378613d4f565b6040519080825280601f01601f1916602001820160405280156133a2576020820181803683370190505b5090506000875b83811015612de3578981815181106133c3576133c3614276565b602001015160f81c60f81b8383815181106133e0576133e0614276565b60200101906001600160f81b031916908160001a90535081613401816145e9565b925050808061340f906145e9565b9150506133a9565b604080518082019091526060815260006020820152825151600061343c8260016146c2565b90508460200151821061345d5761345d85613458836002614799565b6137e8565b8451602083820101858153508051821115613476578181525b5093949350505050565b600061348b826137ff565b1561349857506000919050565b60208201516134a681613848565b9251601f190160080290920192915050565b6000806000806134c88686613a3b565b90506134d56001866146c2565b94506007600582901c16601f8216601c81106135415760405162461bcd60e51b815260206004820152602560248201527f63616e6e6f742068616e646c6520686561646572732077697468206578747261604482015264203e20323760d81b60648201526084016114b4565b60188160ff16101561355f5790945060ff16925084915061368b9050565b8060ff166018036135db5760006135768989613a3b565b90506135836001896146c2565b975060188160ff1610156135c85760405162461bcd60e51b815260206004820152600c60248201526b34b73b30b634b21031b137b960a11b60448201526064016114b4565b9195505060ff16925084915061368b9050565b8060ff166019036136155760006135f28989613a8a565b90506135ff6002896146c2565b97509195505061ffff16925084915061368b9050565b8060ff16601a0361365157600061362c8989613ac3565b90506136396004896146c2565b97509195505063ffffffff16925084915061368b9050565b8060ff16601b1461366457613664614677565b60006136708989613afc565b905061367d6008896146c2565b975091955090935085925050505b9250925092565b60408051808201909152606081526000602082015283515160006136b682856146c2565b905085602001518111156136d3576136d386613458836002614799565b600060016136e386610100614894565b6136ed919061468d565b9050865182810187831982511617815250805183111561370b578281525b50959695505050505050565b604080518082019091526060815260006020820152825182111561373a57600080fd5b835151600061374984836146c2565b905085602001518111156137665761376686613458836002614799565b855180518382016020019160009180851115613780578482525b505050602086015b602086106137c0578051825261379f6020836146c2565b91506137ac6020826146c2565b90506137b960208761468d565b9550613788565b51815160001960208890036101000a0190811690199190911617905250849150509392505050565b81516137f4838361279c565b506120ee838261307c565b60008060208301815b845181101561383d5781519250821561382657506000949350505050565b60209182019161383690826146c2565b9050613808565b506001949350505050565b6000811560018114613a3257604080517ff8f9cbfae6cc78fbefe7cdc3a1793dfcf4f0e8bbd8cec470b6a28a7a5a3e1efd81527ff5ecf1b3e9debc68e1d9cfabc5997135bfb7a7a3938b7b606b5b4b3f2f1f0ffe60208201527ff6e4ed9ff2d6b458eadcdf97bd91692de2d4da8fd2d0ac50c6ae9a8272523616818301527fc8c0b887b0a8a4489c948c7f847c6125746c645c544c444038302820181008ff60608201527ff7cae577eec2a03cf3bad76fb589591debb2dd67e0aa9834bea6925f6a4a2e0e60808201527fe39ed557db96902cd38ed14fad815115c786af479b7e8324736353433727170760a08201527fc976c13bb96e881cb166a933a55e490d9d56952b8d4e801485467d236242260660c08201527f753a6d1b65325d0c552a4d1345224105391a310b29122104190a11030902010060e0820152610100818101909252600160f81b7e818283848586878898a8b8c8d8e8f929395969799a9b9d9e9faaeb6bedeeff600160801b600160401b600160201b620100006010600460026000198e0190810481179182049091179182049091178981041791820490911791820490911791820490911791820490911760010191820283900460ff03909301519096600160ff1b81119094029190040193508116613a2c576001830192505b50612914565b50600092915050565b6000613a488260016146c2565b83511015613a685760405162461bcd60e51b81526004016114b4906148a0565b828281518110613a7a57613a7a614276565b016020015160f81c905092915050565b6000613a978260026146c2565b83511015613ab75760405162461bcd60e51b81526004016114b4906148a0565b50016020015160f01c90565b6000613ad08260046146c2565b83511015613af05760405162461bcd60e51b81526004016114b4906148a0565b50016020015160e01c90565b6000613b098260086146c2565b83511015613b295760405162461bcd60e51b81526004016114b4906148a0565b50016020015160c01c90565b604080516101808101909152606061016082019081528190815260200160006001600160401b03168152602001600015158152602001613b816040518060200160405280606081525090565b8152602001613b9c6040518060200160405280606081525090565b815260200160608152602001600060070b8152602001600060070b8152602001613bdb6040518060400160405280606081526020016000151581525090565b8152602001613bff6040518060400160405280606081526020016000151581525090565b8152602001613c236040518060400160405280606081526020016000151581525090565b905290565b6040518060400160405280613c50604051806040016040528060608152602001600081525090565b8152602001600081525090565b6001600160401b0381168114613c7257600080fd5b50565b60008060408385031215613c8857600080fd5b8235613c9381613c5d565b946020939093013593505050565b60005b83811015613cbc578181015183820152602001613ca4565b50506000910152565b60008151808452613cdd816020860160208601613ca1565b601f01601f19169290920160200192915050565b6001600160401b038716815260e060208201526000613d1360e0830188613cc5565b600787810b604085015286810b60608501528551810b60808501526020860151900b60a0840152905082151560c0830152979650505050505050565b634e487b7160e01b600052604160045260246000fd5b604051601f8201601f191681016001600160401b0381118282101715613d8d57613d8d613d4f565b604052919050565b60006001600160401b03821115613dae57613dae613d4f565b50601f01601f191660200190565b600082601f830112613dcd57600080fd5b8135613de0613ddb82613d95565b613d65565b818152846020838601011115613df557600080fd5b816020850160208301376000918101602001919091529392505050565b600060208284031215613e2457600080fd5b81356001600160401b03811115613e3a57600080fd5b6108f984828501613dbc565b600061014061ffff808e168452808d166020850152808c166040850152506001600160401b03808b166060850152816080850152613e868285018b613cc5565b91508860070b60a08501528760c085015283820360e0850152613ea98288613cc5565b925080861661010085015280851661012085015250509b9a5050505050505050505050565b60008060408385031215613ee157600080fd5b82356001600160401b0380821115613ef857600080fd5b9084019060208287031215613f0c57600080fd5b604051602081018181108382111715613f2757613f27613d4f565b604052823582811115613f3957600080fd5b613f4588828601613dbc565b8252509660209590950135955050505050565b600060208284031215613f6a57600080fd5b5035919050565b602081526000611a496020830184613cc5565b600060208284031215613f9657600080fd5b813561ffff81168114611a4957600080fd5b60208152613fbd60208201835161ffff169052565b60006020830151613fd4604084018261ffff169052565b50604083015161ffff811660608401525060608301516001600160401b03811660808401525060808301516101408060a0850152614016610160850183613cc5565b915060a085015161402c60c086018260070b9052565b5060c085015160e085015260e0850151610100601f1986850301818701526140548483613cc5565b935080870151915050610120614074818701836001600160401b03169052565b909501516001600160401b031693019290925250919050565b60006020828403121561409f57600080fd5b81356001600160401b038111156140b557600080fd5b820160e08185031215611a4957600080fd5b6000806000606084860312156140dc57600080fd5b83356140e781613c5d565b925060208401356140f781613c5d565b915060408401356001600160401b0381111561411257600080fd5b61411e86828701613dbc565b9150509250925092565b63ffffffff841681526001600160401b03831660208201526060604082015260006141566060830184613cc5565b95945050505050565b60006020808301818452808551808352604092508286019150828160051b87010184880160005b8381101561421857603f19898403018552815160e06001600160401b03825116855288820151818a8701526141bd82870182613cc5565b838a0151600790810b888c0152606080860151820b908901526080808601518051830b918a019190915260200151900b60a08089019190915290930151151560c0909601959095525094870194925090860190600101614186565b509098975050505050505050565b600181811c9082168061423a57607f821691505b60208210810361291457634e487b7160e01b600052602260045260246000fd5b6000825161426c818460208701613ca1565b9190910192915050565b634e487b7160e01b600052603260045260246000fd5b634e487b7160e01b600052601160045260246000fd5b600061ffff8083168181036142b9576142b961428c565b6001019392505050565b600781810b9083900b01677fffffffffffffff8113677fffffffffffffff19821217156106ad576106ad61428c565b60006020828403121561430457600080fd5b8135611a4981613c5d565b6000808335601e1984360301811261432657600080fd5b8301803591506001600160401b0382111561434057600080fd5b602001915036819003821315612df957600080fd5b60006020828403121561436757600080fd5b81358060070b8114611a4957600080fd5b8183823760009101908152919050565b601f821115611b3a57600081815260208120601f850160051c810160208610156143af5750805b601f850160051c820191505b818110156143ce578281556001016143bb565b505050505050565b81516001600160401b038111156143ef576143ef613d4f565b614403816143fd8454614226565b84614388565b602080601f83116001811461443857600084156144205750858301515b600019600386901b1c1916600185901b1785556143ce565b600085815260208120601f198616915b8281101561446757888601518255948401946001909101908401614448565b50858210156144855787850151600019600388901b60f8161c191681555b5050505050600190811b01905550565b6001600160401b038181168382160190808211156144b5576144b561428c565b5092915050565b8581526bffffffffffffffffffffffff198560601b1660208201528284603483013760f09190911b6001600160f01b031916603491909201908101919091526036019392505050565b6001600160401b0383111561451c5761451c613d4f565b6145308361452a8354614226565b83614388565b6000601f841160018114614564576000851561454c5750838201355b600019600387901b1c1916600186901b1783556145be565b600083815260209020601f19861690835b828110156145955786850135825560209485019460019092019101614575565b50868210156145b25760001960f88860031b161c19848701351681555b505060018560011b0183555b5050505050565b805160208083015191908110156129145760001960209190910360031b1b16919050565b6000600182016145fb576145fb61428c565b5060010190565b600081526000825161461b816001850160208701613ca1565b9190910160010192915050565b60006001600160401b0380891683528760208401528087166040840152808616606084015260c0608084015261466160c0840186613cc5565b915080841660a084015250979650505050505050565b634e487b7160e01b600052600160045260246000fd5b818103818111156106ad576106ad61428c565b6000826146bd57634e487b7160e01b600052601260045260246000fd5b500690565b808201808211156106ad576106ad61428c565b600782810b9082900b03677fffffffffffffff198112677fffffffffffffff821317156106ad576106ad61428c565b60008060006060848603121561471957600080fd5b83519250602084015161472b81613c5d565b60408501519092506001600160401b0381111561474757600080fd5b8401601f8101861361475857600080fd5b8051614766613ddb82613d95565b81815287602083850101111561477b57600080fd5b61478c826020830160208601613ca1565b8093505050509250925092565b80820281158282048414176106ad576106ad61428c565b600181815b808511156147eb5781600019048211156147d1576147d161428c565b808516156147de57918102915b93841c93908002906147b5565b509250929050565b600082614802575060016106ad565b8161480f575060006106ad565b8160018114614825576002811461482f5761484b565b60019150506106ad565b60ff8411156148405761484061428c565b50506001821b6106ad565b5060208310610133831016604e8410600b841016171561486e575081810a6106ad565b61487883836147b0565b806000190482111561488c5761488c61428c565b029392505050565b6000611a4983836147f3565b602080825260149082015273736c6963696e67206f7574206f662072616e676560601b60408201526060019056fea2646970667358221220596b43bc3621518de71fb46f0c668e8b52dd52ae3a72ca9e3bfc0c285e685aab64736f6c63430008110033",
  "linkReferences": {},
  "deployedLinkReferences": {}
}