{
  "_format": "hh-sol-artifact-1",
  "contractName": "DealClient",
  "sourceName": "contracts/basic-deal-client/DealClient.sol",
  "abi": [
    {
      "inputs": [],
      "stateMutability": "nonpayable",
      "type": "constructor"
    },
    {
      "inputs": [
        {
          "internalType": "int256",
          "name": "errorCode",
          "type": "int256"
        }
      ],
      "name": "ActorError",
      "type": "error"
    },
    {
      "inputs": [],
      "name": "FailToCallActor",
      "type": "error"
    },
    {
      "inputs": [
        {
          "internalType": "uint64",
          "name": "",
          "type": "uint64"
        }
      ],
      "name": "InvalidCodec",
      "type": "error"
    },
    {
      "inputs": [],
      "name": "InvalidResponseLength",
      "type": "error"
    },
    {
      "inputs": [
        {
          "internalType": "uint256",
          "name": "balance",
          "type": "uint256"
        },
        {
          "internalType": "uint256",
          "name": "value",
          "type": "uint256"
        }
      ],
      "name": "NotEnoughBalance",
      "type": "error"
    },
    {
      "anonymous": false,
      "inputs": [
        {
          "indexed": true,
          "internalType": "bytes32",
          "name": "id",
          "type": "bytes32"
        },
        {
          "indexed": false,
          "internalType": "uint64",
          "name": "size",
          "type": "uint64"
        },
        {
          "indexed": true,
          "internalType": "bool",
          "name": "verified",
          "type": "bool"
        },
        {
          "indexed": false,
          "internalType": "uint256",
          "name": "price",
          "type": "uint256"
        }
      ],
      "name": "DealProposalCreate",
      "type": "event"
    },
    {
      "anonymous": false,
      "inputs": [
        {
          "indexed": false,
          "internalType": "string",
          "name": "text",
          "type": "string"
        }
      ],
      "name": "Log",
      "type": "event"
    },
    {
      "anonymous": false,
      "inputs": [
        {
          "indexed": false,
          "internalType": "string",
          "name": "received",
          "type": "string"
        }
      ],
      "name": "ReceivedDataCap",
      "type": "event"
    },
    {
      "anonymous": false,
      "inputs": [
        {
          "indexed": false,
          "internalType": "bytes32",
          "name": "id",
          "type": "bytes32"
        }
      ],
      "name": "UniqId",
      "type": "event"
    },
    {
      "inputs": [],
      "name": "AUTHENTICATE_MESSAGE_METHOD_NUM",
      "outputs": [
        {
          "internalType": "uint64",
          "name": "",
          "type": "uint64"
        }
      ],
      "stateMutability": "view",
      "type": "function"
    },
    {
      "inputs": [],
      "name": "DATACAP_RECEIVER_HOOK_METHOD_NUM",
      "outputs": [
        {
          "internalType": "uint64",
          "name": "",
          "type": "uint64"
        }
      ],
      "stateMutability": "view",
      "type": "function"
    },
    {
      "inputs": [],
      "name": "MARKET_NOTIFY_DEAL_METHOD_NUM",
      "outputs": [
        {
          "internalType": "uint64",
          "name": "",
          "type": "uint64"
        }
      ],
      "stateMutability": "view",
      "type": "function"
    },
    {
      "inputs": [],
      "name": "ONE_MONTH",
      "outputs": [
        {
          "internalType": "int64",
          "name": "",
          "type": "int64"
        }
      ],
      "stateMutability": "view",
      "type": "function"
    },
    {
      "inputs": [
        {
          "components": [
            {
              "internalType": "bytes",
              "name": "data",
              "type": "bytes"
            }
          ],
          "internalType": "struct CommonTypes.FilAddress",
          "name": "client",
          "type": "tuple"
        },
        {
          "internalType": "uint256",
          "name": "value",
          "type": "uint256"
        }
      ],
      "name": "addBalance",
      "outputs": [],
      "stateMutability": "nonpayable",
      "type": "function"
    },
    {
      "inputs": [
        {
          "internalType": "bytes",
          "name": "",
          "type": "bytes"
        }
      ],
      "name": "backupItems",
      "outputs": [
        {
          "internalType": "string",
          "name": "name",
          "type": "string"
        },
        {
          "internalType": "uint16",
          "name": "totalDealCount",
          "type": "uint16"
        },
        {
          "internalType": "uint16",
          "name": "atLeast1MonthDealCount",
          "type": "uint16"
        },
        {
          "internalType": "uint16",
          "name": "targetRedundancy",
          "type": "uint16"
        },
        {
          "internalType": "uint64",
          "name": "pieceSize",
          "type": "uint64"
        },
        {
          "internalType": "string",
          "name": "label",
          "type": "string"
        },
        {
          "internalType": "int64",
          "name": "dealDuration",
          "type": "int64"
        },
        {
          "internalType": "uint256",
          "name": "maxPricePerEpoch",
          "type": "uint256"
        },
        {
          "internalType": "string",
          "name": "originalLocation",
          "type": "string"
        },
        {
          "internalType": "uint64",
          "name": "carSize",
          "type": "uint64"
        },
        {
          "internalType": "uint64",
          "name": "dealArrayId",
          "type": "uint64"
        }
      ],
      "stateMutability": "view",
      "type": "function"
    },
    {
      "inputs": [
        {
          "internalType": "uint16",
          "name": "newValue",
          "type": "uint16"
        }
      ],
      "name": "changeDefaultTargetRedundancy",
      "outputs": [
        {
          "internalType": "bool",
          "name": "",
          "type": "bool"
        }
      ],
      "stateMutability": "nonpayable",
      "type": "function"
    },
    {
      "inputs": [
        {
          "internalType": "bytes",
          "name": "commP",
          "type": "bytes"
        },
        {
          "internalType": "uint16",
          "name": "newValue",
          "type": "uint16"
        }
      ],
      "name": "changeTargetRedundancy",
      "outputs": [
        {
          "internalType": "bool",
          "name": "",
          "type": "bool"
        }
      ],
      "stateMutability": "nonpayable",
      "type": "function"
    },
    {
      "inputs": [
        {
          "internalType": "uint64",
          "name": "",
          "type": "uint64"
        },
        {
          "internalType": "uint256",
          "name": "",
          "type": "uint256"
        }
      ],
      "name": "dealArrays",
      "outputs": [
        {
          "internalType": "uint64",
          "name": "dealId",
          "type": "uint64"
        },
        {
          "internalType": "bytes",
          "name": "providerAddress",
          "type": "bytes"
        },
        {
          "internalType": "int64",
          "name": "startEpoch",
          "type": "int64"
        },
        {
          "internalType": "int64",
          "name": "endEpoch",
          "type": "int64"
        },
        {
          "components": [
            {
              "internalType": "int64",
              "name": "activated",
              "type": "int64"
            },
            {
              "internalType": "int64",
              "name": "terminated",
              "type": "int64"
            }
          ],
          "internalType": "struct MarketTypes.GetDealActivationReturn",
          "name": "status",
          "type": "tuple"
        },
        {
          "internalType": "bool",
          "name": "isActive",
          "type": "bool"
        }
      ],
      "stateMutability": "view",
      "type": "function"
    },
    {
      "inputs": [
        {
          "internalType": "bytes32",
          "name": "",
          "type": "bytes32"
        }
      ],
      "name": "dealProposals",
      "outputs": [
        {
          "internalType": "bytes",
          "name": "",
          "type": "bytes"
        }
      ],
      "stateMutability": "view",
      "type": "function"
    },
    {
      "inputs": [
        {
          "internalType": "bytes",
          "name": "commP",
          "type": "bytes"
        }
      ],
      "name": "getBackupItem",
      "outputs": [
        {
          "components": [
            {
              "internalType": "string",
              "name": "name",
              "type": "string"
            },
            {
              "internalType": "uint16",
              "name": "totalDealCount",
              "type": "uint16"
            },
            {
              "internalType": "uint16",
              "name": "atLeast1MonthDealCount",
              "type": "uint16"
            },
            {
              "internalType": "uint16",
              "name": "targetRedundancy",
              "type": "uint16"
            },
            {
              "internalType": "uint64",
              "name": "pieceSize",
              "type": "uint64"
            },
            {
              "internalType": "string",
              "name": "label",
              "type": "string"
            },
            {
              "internalType": "int64",
              "name": "dealDuration",
              "type": "int64"
            },
            {
              "internalType": "uint256",
              "name": "maxPricePerEpoch",
              "type": "uint256"
            },
            {
              "internalType": "string",
              "name": "originalLocation",
              "type": "string"
            },
            {
              "internalType": "uint64",
              "name": "carSize",
              "type": "uint64"
            },
            {
              "internalType": "uint64",
              "name": "dealArrayId",
              "type": "uint64"
            }
          ],
          "internalType": "struct BackupItem",
          "name": "",
          "type": "tuple"
        }
      ],
      "stateMutability": "view",
      "type": "function"
    },
    {
      "inputs": [
        {
          "internalType": "bytes32",
          "name": "proposalId",
          "type": "bytes32"
        }
      ],
      "name": "getCommpFromId",
      "outputs": [
        {
          "internalType": "bytes",
          "name": "",
          "type": "bytes"
        }
      ],
      "stateMutability": "view",
      "type": "function"
    },
    {
      "inputs": [
        {
          "internalType": "bytes32",
          "name": "proposalId",
          "type": "bytes32"
        }
      ],
      "name": "getDealProposal",
      "outputs": [
        {
          "internalType": "bytes",
          "name": "",
          "type": "bytes"
        }
      ],
      "stateMutability": "view",
      "type": "function"
    },
    {
      "inputs": [
        {
          "internalType": "bytes",
          "name": "commP",
          "type": "bytes"
        }
      ],
      "name": "getDeals",
      "outputs": [
        {
          "components": [
            {
              "internalType": "uint64",
              "name": "dealId",
              "type": "uint64"
            },
            {
              "internalType": "bytes",
              "name": "providerAddress",
              "type": "bytes"
            },
            {
              "internalType": "int64",
              "name": "startEpoch",
              "type": "int64"
            },
            {
              "internalType": "int64",
              "name": "endEpoch",
              "type": "int64"
            },
            {
              "components": [
                {
                  "internalType": "int64",
                  "name": "activated",
                  "type": "int64"
                },
                {
                  "internalType": "int64",
                  "name": "terminated",
                  "type": "int64"
                }
              ],
              "internalType": "struct MarketTypes.GetDealActivationReturn",
              "name": "status",
              "type": "tuple"
            },
            {
              "internalType": "bool",
              "name": "isActive",
              "type": "bool"
            }
          ],
          "internalType": "struct BackupItemDeal[]",
          "name": "",
          "type": "tuple[]"
        }
      ],
      "stateMutability": "view",
      "type": "function"
    },
    {
      "inputs": [],
      "name": "getDefaultTargetRedundancy",
      "outputs": [
        {
          "internalType": "uint16",
          "name": "",
          "type": "uint16"
        }
      ],
      "stateMutability": "view",
      "type": "function"
    },
    {
      "inputs": [
        {
          "internalType": "bytes32",
          "name": "proposalId",
          "type": "bytes32"
        }
      ],
      "name": "getExtraParams",
      "outputs": [
        {
          "internalType": "bytes",
          "name": "extra_params",
          "type": "bytes"
        }
      ],
      "stateMutability": "view",
      "type": "function"
    },
    {
      "inputs": [
        {
          "internalType": "bytes",
          "name": "commP",
          "type": "bytes"
        }
      ],
      "name": "getNameForCommp",
      "outputs": [
        {
          "internalType": "string",
          "name": "",
          "type": "string"
        }
      ],
      "stateMutability": "view",
      "type": "function"
    },
    {
      "inputs": [
        {
          "internalType": "uint64",
          "name": "from",
          "type": "uint64"
        },
        {
          "internalType": "uint64",
          "name": "count",
          "type": "uint64"
        }
      ],
      "name": "getNameLookupArraySegment",
      "outputs": [
        {
          "components": [
            {
              "internalType": "string",
              "name": "name",
              "type": "string"
            },
            {
              "internalType": "bytes",
              "name": "commP",
              "type": "bytes"
            }
          ],
          "internalType": "struct NameEntry[]",
          "name": "",
          "type": "tuple[]"
        }
      ],
      "stateMutability": "view",
      "type": "function"
    },
    {
      "inputs": [
        {
          "internalType": "uint64",
          "name": "method",
          "type": "uint64"
        },
        {
          "internalType": "uint64",
          "name": "",
          "type": "uint64"
        },
        {
          "internalType": "bytes",
          "name": "params",
          "type": "bytes"
        }
      ],
      "name": "handle_filecoin_method",
      "outputs": [
        {
          "internalType": "uint32",
          "name": "",
          "type": "uint32"
        },
        {
          "internalType": "uint64",
          "name": "",
          "type": "uint64"
        },
        {
          "internalType": "bytes",
          "name": "",
          "type": "bytes"
        }
      ],
      "stateMutability": "nonpayable",
      "type": "function"
    },
    {
      "inputs": [
        {
          "internalType": "bytes",
          "name": "commP",
          "type": "bytes"
        }
      ],
      "name": "keepTargetRedundancy",
      "outputs": [
        {
          "internalType": "bool",
          "name": "",
          "type": "bool"
        }
      ],
      "stateMutability": "nonpayable",
      "type": "function"
    },
    {
      "inputs": [],
      "name": "owner",
      "outputs": [
        {
          "internalType": "address",
          "name": "",
          "type": "address"
        }
      ],
      "stateMutability": "view",
      "type": "function"
    },
    {
      "inputs": [],
      "name": "refreshMetadataForAll",
      "outputs": [
        {
          "internalType": "bool",
          "name": "",
          "type": "bool"
        }
      ],
      "stateMutability": "nonpayable",
      "type": "function"
    },
    {
      "inputs": [
        {
          "internalType": "bytes",
          "name": "commP",
          "type": "bytes"
        }
      ],
      "name": "refreshMetadataForBackupItem",
      "outputs": [
        {
          "internalType": "bool",
          "name": "",
          "type": "bool"
        }
      ],
      "stateMutability": "nonpayable",
      "type": "function"
    },
    {
      "inputs": [
        {
          "internalType": "bytes[]",
          "name": "list",
          "type": "bytes[]"
        }
      ],
      "name": "refreshMetadataForList",
      "outputs": [
        {
          "internalType": "bool",
          "name": "",
          "type": "bool"
        }
      ],
      "stateMutability": "nonpayable",
      "type": "function"
    },
    {
      "inputs": [
        {
          "components": [
            {
              "internalType": "string",
              "name": "name",
              "type": "string"
            },
            {
              "internalType": "bytes",
              "name": "pieceCID",
              "type": "bytes"
            },
            {
              "internalType": "uint64",
              "name": "pieceSize",
              "type": "uint64"
            },
            {
              "internalType": "string",
              "name": "label",
              "type": "string"
            },
            {
              "internalType": "int64",
              "name": "dealDuration",
              "type": "int64"
            },
            {
              "internalType": "uint256",
              "name": "maxPricePerEpoch",
              "type": "uint256"
            },
            {
              "internalType": "string",
              "name": "originalLocation",
              "type": "string"
            },
            {
              "internalType": "uint64",
              "name": "carSize",
              "type": "uint64"
            }
          ],
          "internalType": "struct BackupRequest",
          "name": "backupMeta",
          "type": "tuple"
        }
      ],
      "name": "startBackup",
      "outputs": [
        {
          "internalType": "bool",
          "name": "",
          "type": "bool"
        }
      ],
      "stateMutability": "nonpayable",
      "type": "function"
    },
    {
      "inputs": [
        {
          "components": [
            {
              "internalType": "bytes",
              "name": "data",
              "type": "bytes"
            }
          ],
          "internalType": "struct CommonTypes.FilAddress",
          "name": "client",
          "type": "tuple"
        },
        {
          "internalType": "uint256",
          "name": "value",
          "type": "uint256"
        }
      ],
      "name": "withdrawBalance",
      "outputs": [
        {
          "internalType": "uint256",
          "name": "",
          "type": "uint256"
        }
      ],
      "stateMutability": "nonpayable",
      "type": "function"
    }
  ],
  "bytecode": "0x6080604052600480546001600160901b031916600160811b17905534801561002657600080fd5b50600580546001600160a01b03191633179055615a0280620000496000396000f3fe608060405234801561001057600080fd5b506004361061018d5760003560e01c806374112d66116100de578063ae9dbe3e11610097578063e7c897f911610071578063e7c897f9146103fc578063f0e503021461040f578063f4b2e4d814610422578063f71c29cc1461043557600080fd5b8063ae9dbe3e146103cb578063b34ba252146103de578063de01efc9146103e957600080fd5b806374112d661461032e578063868e10c4146103415780638993dcda146103635780638da5cb5b146103835780638f915d93146103ae5780639f1a1fb3146103b657600080fd5b80633b2c07e71161014b5780634dc326e6116101255780634dc326e6146102ad5780636067f454146102f05780636b38eda7146102fb57806370c44f531461031b57600080fd5b80633b2c07e714610267578063413428bd146102875780634634aed51461029a57600080fd5b806270679014610192578063028a6785146101ba5780631bb858b3146101df57806320988cef146102095780632b2a8abb1461022657806338cefddc14610247575b600080fd5b61019d639d8b067881565b6040516001600160401b0390911681526020015b60405180910390f35b6101cd6101c83660046149ff565b610456565b6040516101b196959493929190614a7b565b6101f26101ed366004614b9c565b610567565b6040516101b19b9a99989796959493929190614bd0565b6102136201518081565b60405160079190910b81526020016101b1565b610239610234366004614c7e565b610792565b6040519081526020016101b1565b61025a610255366004614d08565b6107ed565b6040516101b19190614d41565b61027a610275366004614b9c565b610ae0565b6040516101b19190614dc6565b61027a610295366004614dd9565b610b91565b61027a6102a8366004614dd9565b610c35565b6102e06102bb366004614e09565b6004805461ffff909216600160801b0261ffff60801b19909216919091179055600190565b60405190151581526020016101b1565b61019d63f98c996681565b61030e610309366004614b9c565b610ddf565b6040516101b19190614e24565b6102e0610329366004614b9c565b6110a0565b61027a61033c366004614dd9565b6114c0565b61035461034f366004614f2a565b61155a565b6040516101b193929190614f8b565b610376610371366004614b9c565b611661565b6040516101b19190614fc2565b600554610396906001600160a01b031681565b6040516001600160a01b0390911681526020016101b1565b6102e0611803565b6103c96103c4366004614c7e565b6118f3565b005b6102e06103d936600461507b565b611918565b61019d63de180de381565b6102e06103f7366004614b9c565b611975565b6102e061040a36600461513d565b611b1f565b6102e061041d36600461518a565b611baa565b61027a610430366004614dd9565b612167565b600454600160801b900461ffff1660405161ffff90911681526020016101b1565b6002602052816000526040600020818154811061047257600080fd5b6000918252602090912060059091020180546001820180546001600160401b0390921694509192506104a3906151c5565b80601f01602080910402602001604051908101604052809291908181526020018280546104cf906151c5565b801561051c5780601f106104f15761010080835404028352916020019161051c565b820191906000526020600020905b8154815290600101906020018083116104ff57829003601f168201915b5050506002840154604080518082019091526003860154600781810b8352600160401b91829004810b6020840152600490970154959683810b969190930490920b9350915060ff1686565b805160208183018101805160018252928201919093012091528054819061058d906151c5565b80601f01602080910402602001604051908101604052809291908181526020018280546105b9906151c5565b80156106065780601f106105db57610100808354040283529160200191610606565b820191906000526020600020905b8154815290600101906020018083116105e957829003601f168201915b505050506001830154600284018054939461ffff8084169562010000850482169550600160201b850490911693600160301b90046001600160401b0316929061064e906151c5565b80601f016020809104026020016040519081016040528092919081815260200182805461067a906151c5565b80156106c75780601f1061069c576101008083540402835291602001916106c7565b820191906000526020600020905b8154815290600101906020018083116106aa57829003601f168201915b5050505050908060030160009054906101000a900460070b908060040154908060050180546106f5906151c5565b80601f0160208091040260200160405190810160405280929190818152602001828054610721906151c5565b801561076e5780601f106107435761010080835404028352916020019161076e565b820191906000526020600020905b81548152906001019060200180831161075157829003601f168201915b505050600690930154919250506001600160401b0380821691600160401b9004168b565b6005546000906001600160a01b031633146107ac57600080fd5b600060405180604001604052808581526020016107c885612407565b9052905060006107d78261244d565b90506107e281612491565b925050505b92915050565b6003546060906107ff9060019061520f565b836001600160401b0316106108795760405162461bcd60e51b815260206004820152603560248201527f66726f6d2076616c75652063616e2774206265206c6172676572207468656e206044820152747468652073697a65206f662074686520617272617960581b60648201526084015b60405180910390fd5b6003546001600160401b031661088f8385615222565b6001600160401b031611156108a45760035491505b6000826001600160401b03166001600160401b038111156108c7576108c7614ad9565b60405190808252806020026020018201604052801561090c57816020015b60408051808201909152606080825260208201528152602001906001900390816108e55790505b5090506000845b61091d8587615222565b6001600160401b0316816001600160401b03161015610ad6576003816001600160401b03168154811061095257610952615249565b906000526020600020906002020160405180604001604052908160008201805461097b906151c5565b80601f01602080910402602001604051908101604052809291908181526020018280546109a7906151c5565b80156109f45780601f106109c9576101008083540402835291602001916109f4565b820191906000526020600020905b8154815290600101906020018083116109d757829003601f168201915b50505050508152602001600182018054610a0d906151c5565b80601f0160208091040260200160405190810160405280929190818152602001828054610a39906151c5565b8015610a865780601f10610a5b57610100808354040283529160200191610a86565b820191906000526020600020905b815481529060010190602001808311610a6957829003601f168201915b50505050508152505083836001600160401b031681518110610aaa57610aaa615249565b60200260200101819052508180610ac09061525f565b9250508080610ace9061525f565b915050610913565b5090949350505050565b6060600182604051610af29190615285565b9081526040519081900360200190208054610b0c906151c5565b80601f0160208091040260200160405190810160405280929190818152602001828054610b38906151c5565b8015610b855780601f10610b5a57610100808354040283529160200191610b85565b820191906000526020600020905b815481529060010190602001808311610b6857829003601f168201915b50505050509050919050565b600081815260208190526040812080546060929190610baf906151c5565b80601f0160208091040260200160405190810160405280929190818152602001828054610bdb906151c5565b8015610c285780601f10610bfd57610100808354040283529160200191610c28565b820191906000526020600020905b815481529060010190602001808311610c0b57829003601f168201915b5093979650505050505050565b600081815260208190526040812080546060929190610c53906151c5565b80601f0160208091040260200160405190810160405280929190818152602001828054610c7f906151c5565b8015610ccc5780601f10610ca157610100808354040283529160200191610ccc565b820191906000526020600020905b815481529060010190602001808311610caf57829003601f168201915b5050505050905060006040518060800160405280600184604051610cf09190615285565b90815260200160405180910390206005018054610d0c906151c5565b80601f0160208091040260200160405190810160405280929190818152602001828054610d38906151c5565b8015610d855780601f10610d5a57610100808354040283529160200191610d85565b820191906000526020600020905b815481529060010190602001808311610d6857829003601f168201915b50505050508152602001600184604051610d9f9190615285565b9081526040805160209281900383019020600601546001600160401b03168352600091830182905291909101529050610dd7816124b8565b949350505050565b604080516101608101825260608082526000602083018190529282018390528082018390526080820183905260a0820181905260c0820183905260e082018390526101008201526101208101829052610140810191909152600182604051610e479190615285565b908152602001604051809103902060405180610160016040529081600082018054610e71906151c5565b80601f0160208091040260200160405190810160405280929190818152602001828054610e9d906151c5565b8015610eea5780601f10610ebf57610100808354040283529160200191610eea565b820191906000526020600020905b815481529060010190602001808311610ecd57829003601f168201915b5050509183525050600182015461ffff808216602084015262010000820481166040840152600160201b8204166060830152600160301b90046001600160401b0316608082015260028201805460a090920191610f46906151c5565b80601f0160208091040260200160405190810160405280929190818152602001828054610f72906151c5565b8015610fbf5780601f10610f9457610100808354040283529160200191610fbf565b820191906000526020600020905b815481529060010190602001808311610fa257829003601f168201915b5050509183525050600382015460070b602082015260048201546040820152600582018054606090920191610ff3906151c5565b80601f016020809104026020016040519081016040528092919081815260200182805461101f906151c5565b801561106c5780601f106110415761010080835404028352916020019161106c565b820191906000526020600020905b81548152906001019060200180831161104f57829003601f168201915b5050509183525050600691909101546001600160401b038082166020840152600160401b9091041660409091015292915050565b6000806001836040516110b39190615285565b908152604051908190036020019020600601546001600160401b03600160401b909104169050600080805b6001600160401b03841660009081526002602052604090205461ffff8216101561143b576001600160401b0384166000908152600260205260408120805461ffff841690811061113057611130615249565b60009182526020909120600590910201546001600160401b0316905061115581612520565b6001600160401b0386166000908152600260205260409020805461ffff851690811061118357611183615249565b600091825260208083208451600593909302016003018054948201516001600160401b039384166001600160801b031990961695909517600160401b958416959095029490941790935587168152600290915260408120805461ffff85169081106111f0576111f0615249565b600091825260209091206003600590920201015460070b13801561126157506001600160401b038516600090815260026020526040902080546001919061ffff851690811061124157611241615249565b6000918252602090912060036005909202010154600160401b900460070b125b1561134f5783611270816152a1565b6001600160401b03871660009081526002602052604090208054919650600192509061ffff85169081106112a6576112a6615249565b906000526020600020906005020160040160006101000a81548160ff0219169083151502179055504360070b6201518060026000886001600160401b03166001600160401b031681526020019081526020016000208461ffff168154811061131057611310615249565b60009182526020909120600260059092020101546113389190600160401b900460070b6152b8565b60070b131561134f578261134b816152a1565b9350505b6001600160401b0385166000908152600260205260408120805461ffff851690811061137d5761137d615249565b6000918252602090912060036005909202010154600160401b900460070b13156114285760006113b1868461ffff1661256d565b9050806114265760405162461bcd60e51b815260206004820152603d60248201527f54686572652077617320616e206572726f72207768696c652072656d6f76696e60448201527f672065787069726564206465616c2066726f6d207468652061727261790000006064820152608401610870565b505b5080611433816152a1565b9150506110de565b508160018660405161144d9190615285565b908152602001604051809103902060010160006101000a81548161ffff021916908361ffff160217905550806001866040516114899190615285565b908152602001604051809103902060010160026101000a81548161ffff021916908361ffff16021790555060019350505050919050565b600060208190529081526040902080546114d9906151c5565b80601f0160208091040260200160405190810160405280929190818152602001828054611505906151c5565b80156115525780601f1061152757610100808354040283529160200191611552565b820191906000526020600020905b81548152906001019060200180831161153557829003601f168201915b505050505081565b60008060608082639d8b0677196001600160401b038916016115ad5761157f866127cf565b600061158b6001612874565b9050611598816001612895565b6115a1816128ac565b92506051915050611651565b63f98c9965196001600160401b038916016115d0576115cb866128f7565b611651565b63de180de2196001600160401b038916016115ee576115cb86612d7f565b60405162461bcd60e51b815260206004820152603260248201527f7468652066696c65636f696e206d6574686f642074686174207761732063616c6044820152711b1959081a5cc81b9bdd081a185b991b195960721b6064820152608401610870565b6000989097509095509350505050565b606060006001836040516116759190615285565b908152604080519182900360209081018320600601546001600160401b03600160401b9091041660008181526002835283812080548085028701850190955284865291955090929184015b828210156117f75760008481526020908190206040805160c081019091526005850290910180546001600160401b031682526001810180549293919291840191611709906151c5565b80601f0160208091040260200160405190810160405280929190818152602001828054611735906151c5565b80156117825780601f1061175757610100808354040283529160200191611782565b820191906000526020600020905b81548152906001019060200180831161176557829003601f168201915b50505091835250506002820154600781810b602080850191909152600160401b92839004820b6040808601919091528051808201909152600386015480840b82529390930490910b82820152606083019190915260049092015460ff16151560809091015290825260019290920191016116c0565b50505050915050919050565b6000805b6003546001600160401b03821610156118eb576118d86003826001600160401b03168154811061183957611839615249565b90600052602060002090600202016001018054611855906151c5565b80601f0160208091040260200160405190810160405280929190818152602001828054611881906151c5565b80156118ce5780601f106118a3576101008083540402835291602001916118ce565b820191906000526020600020905b8154815290600101906020018083116118b157829003601f168201915b50505050506110a0565b50806118e38161525f565b915050611807565b506001905090565b6005546001600160a01b0316331461190a57600080fd5b6119148282612ddd565b5050565b6000805b8251816001600160401b0316101561196c5761195983826001600160401b03168151811061194c5761194c615249565b60200260200101516110a0565b50806119648161525f565b91505061191c565b50600192915050565b6000806001836040516119889190615285565b908152604051908190036020018120600601546001600160401b03600160401b9091041691506000906001906119bf908690615285565b9081526040519081900360200190206001015461ffff620100009091041690505b6001846040516119f09190615285565b9081526040519081900360200190206001015461ffff600160201b90910481169082161015611b1557600042338684604051602001611a3294939291906152e7565b60408051601f1981840301815290829052805160209182012080835292507fa1c1563537b433fe1b334e80c2a29a51035fdbd0290bf5bd4fdf9fee6ef00cab910160405180910390a16000818152602081905260409020611a9386826153a2565b5060001515817ffd6419d07e4c269e58d0c63969756c2124155b4a8d6dd08b8cd46e3a9acbf625600188604051611aca9190615285565b908152604080519182900360209081018320600101546001600160401b03600160301b9091041683526000908301520160405180910390a35080611b0d816152a1565b9150506119e0565b5060019392505050565b6000600183604051611b319190615285565b908152604051908190036020019020600101546001600160401b03600160301b90910416600003611b64575060006107e7565b81600184604051611b759190615285565b908152602001604051809103902060010160046101000a81548161ffff021916908361ffff1602179055506001905092915050565b6005546000906001600160a01b03163314611bc457600080fd5b60408051610160810190915280611bdb848061545b565b8080601f016020809104026020016040519081016040528093929190818152602001838380828437600092018290525093855250505060208201819052604080830191909152600454600160801b900461ffff16606080840191909152608090920191611c4d919086019086016154a1565b6001600160401b03168152602001611c68606085018561545b565b8080601f016020809104026020016040519081016040528093929190818152602001838380828437600092019190915250505090825250602001611cb260a08501608086016154be565b60070b815260a08401356020820152604001611cd160c085018561545b565b8080601f016020809104026020016040519081016040528093929190818152602001838380828437600092019190915250505090825250602001611d1c610100850160e086016154a1565b6001600160401b03908116825260045416602091820152600190611d429085018561545b565b604051611d509291906154e1565b90815260405190819003602001902081518190611d6d90826153a2565b5060208201516001820180546040850151606086015160808701516001600160401b0316600160301b026dffffffffffffffff0000000000001961ffff928316600160201b02166dffffffffffffffffffff0000000019938316620100000263ffffffff19909516929096169190911792909217169290921791909117905560a08201516002820190611e0090826153a2565b5060c082015160038201805467ffffffffffffffff19166001600160401b0390921691909117905560e082015160048201556101008201516005820190611e4790826153a2565b5061012082015160069091018054610140909301516001600160401b03908116600160401b026001600160801b03199094169281169290921792909217909155600454611e9691166001615222565b6004805467ffffffffffffffff19166001600160401b03929092169190911790556040805180820190915260039080611ecf858061545b565b8080601f016020809104026020016040519081016040528093929190818152602001838380828437600092019190915250505090825250602090810190611f189086018661545b565b8080601f0160208091040260200160405190810160405280939291908181526020018383808284376000920182905250939094525050835460018101855593815260209020825192936002020191829150611f7390826153a2565b5060208201516001820190611f8890826153a2565b5050600454611fa99150600160401b90046001600160401b03166001615222565b600480546001600160401b0392909216600160401b026fffffffffffffffff00000000000000001990921691909117905560006001611feb602085018561545b565b604051611ff99291906154e1565b908152604051908190036020019020600601546001600160401b03600160401b90910416905060005b6001612031602086018661545b565b60405161203f9291906154e1565b9081526040519081900360200190206001015461ffff600160201b90910481169082161015611b155760004233612079602088018861545b565b8560405160200161208e9594939291906154f1565b60408051601f1981840301815290829052805160209182012080835292507fa1c1563537b433fe1b334e80c2a29a51035fdbd0290bf5bd4fdf9fee6ef00cab910160405180910390a16120e4602086018661545b565b6000838152602081905260409020916120fe91908361553a565b506000817ffd6419d07e4c269e58d0c63969756c2124155b4a8d6dd08b8cd46e3a9acbf6256121336060890160408a016154a1565b604080516001600160401b039092168252600060208301520160405180910390a3508061215f816152a1565b915050612022565b600081815260208190526040812080546060929190612185906151c5565b80601f01602080910402602001604051908101604052809291908181526020018280546121b1906151c5565b80156121fe5780601f106121d3576101008083540402835291602001916121fe565b820191906000526020600020905b8154815290600101906020018083116121e157829003601f168201915b50505050509050600061025890506000814361221a91906152b8565b9050600060018460405161222e9190615285565b9081526040519081900360200190206003015461224e9060070b836152b8565b905061225861486c565b60408051602081018252868152825251600190612276908790615285565b908152604080516020928190038301902060010154600160301b90046001600160401b031683830152600083820152805180830182526060908190528151928301825261020560f11b8383015230901b6bffffffffffffffffffffffff191660428301528051603681840301815260568301909152815260608201526122fc6000612e2b565b6080820152604051600190612312908790615285565b9081526020016040518091039020600201805461232e906151c5565b80601f016020809104026020016040519081016040528092919081815260200182805461235a906151c5565b80156123a75780601f1061237c576101008083540402835291602001916123a7565b820191906000526020600020905b81548152906001019060200180831161238a57829003601f168201915b505050505060a0820152600783810b60c083015282900b60e08201526123cd6000612407565b6101008201526123dd6000612407565b6101208201526123ed6000612407565b6101408201526123fc81612e80565b979650505050505050565b6040805180820190915260608152600060208201526000612429836000612f74565b60408051808201909152815181526020918201511515918101919091529392505050565b604080518082019091526060815260006020820152600061246d83612fc7565b9050600061248660056387ed0a64605185600080613000565b9050610dd7816130f6565b6000806124a68360000151846020015161315a565b905060008160000151610dd7906155f4565b606060006124c66040612874565b90506124d381600461318c565b82516124e0908290613198565b60208301516124f09082906131b1565b6040830151612500908290612895565b6060830151612510908290612895565b612519816128ac565b9392505050565b60408051808201909152600080825260208201526000612548836001600160401b03166131bd565b905060006125626005639904f2ff60518560006001613000565b9050610dd7816131d7565b6001600160401b038083166000908152600260205260408120549091831610612598575060006107e7565b815b6001600160401b0384166000908152600260205260409020546125bf9060019061520f565b816001600160401b0316101561273e576001600160401b03841660009081526002602052604090206125f2826001615222565b6001600160401b03168154811061260b5761260b615249565b906000526020600020906005020160026000866001600160401b03166001600160401b03168152602001908152602001600020826001600160401b03168154811061265857612658615249565b600091825260209091208254600590920201805467ffffffffffffffff19166001600160401b0390921691909117815560018082019061269a90840182615618565b5060028281018054918301805467ffffffffffffffff198082166001600160401b03958616908117845593546001600160801b0319928316909417600160401b948590048616850217909255600380870180549187018054948516928716928317815590549390921617918390049093169091021790556004918201549101805460ff191660ff9092161515919091179055806127368161525f565b91505061259a565b506001600160401b0383166000908152600260205260409020805480612766576127666156e4565b600082815260208120600560001990930192830201805467ffffffffffffffff1916815590612798600183018261495f565b506002810180546001600160801b03199081169091556003820180549091169055600401805460ff19169055905550600192915050565b60006127da8261323b565b905060006127eb8260200151613297565b80515160405191925060009160019161280391615285565b9081526040519081900360200190206001015461ffff600160201b909104161161286f5760405162461bcd60e51b815260206004820181905260248201527f436f6d6d50206d75737420657869737420696e206261636b75704974656d73216044820152606401610870565b505050565b61287c61499c565b805161288890836134d3565b5060006020820152919050565b61191482826128a557601461354a565b601561354a565b606081602001516000146128f15760405162461bcd60e51b815260206004820152600c60248201526b24b73b30b634b21021a127a960a11b6044820152606401610870565b50515190565b600061290282613559565b905060006129138260000151613297565b80515160405191925060009160019161292b91615285565b9081526040519081900360200190206001015461ffff600160201b90910416116129975760405162461bcd60e51b815260206004820181905260248201527f436f6d6d50206d75737420657869737420696e206261636b75704974656d73216044820152606401610870565b6000806002600060018560000151600001516040516129b69190615285565b908152602001604051809103902060060160089054906101000a90046001600160401b03166001600160401b03166001600160401b03168152602001908152602001600020805480602002602001604051908101604052809291908181526020016000905b82821015612b525760008481526020908190206040805160c081019091526005850290910180546001600160401b031682526001810180549293919291840191612a64906151c5565b80601f0160208091040260200160405190810160405280929190818152602001828054612a90906151c5565b8015612add5780601f10612ab257610100808354040283529160200191612add565b820191906000526020600020905b815481529060010190602001808311612ac057829003601f168201915b50505091835250506002820154600781810b602080850191909152600160401b92839004820b6040808601919091528051808201909152600386015480840b82529390930490910b82820152606083019190915260049092015460ff1615156080909101529082526001929092019101612a1b565b50505050905060005b8151811015612bb95784602001516001600160401b0316828281518110612b8457612b84615249565b6020026020010151600001516001600160401b031603612ba75760019250612bb9565b80612bb1816156fa565b915050612b5b565b508115612c165760405162461bcd60e51b815260206004820152602560248201527f50726f766964657220697320616c72656164792073746f72696e672074686973604482015264206461746160d81b6064820152608401610870565b825151604051600291600091600191612c2e91615285565b908152604080516020928190038301902060060154600160401b90046001600160401b039081168452838301949094529182016000908120835160c080820186528a8501518716825260808a81015151838701908152918b0151600790810b8489015260e08c0151900b606084015286518088019097526000198088528787015282019590955260a08101839052815460018082018455928452939092208251600590940201805467ffffffffffffffff191693909516929092178455915191929190820190612cfe90826153a2565b50604082015160028201805460608501516001600160401b039384166001600160801b031992831617600160401b918516820217909255608085015180516003860180546020909301519186169290931691909117931690910291909117905560a0909101516004909101805460ff19169115159190911790555050505050565b7f10aa319ed8cad9bceb033c0c2788c4ae17469ac844e4c6e2c2e20e74ca8a7be8604051612dd290602080825260119082015270446174614361702052656365697665642160781b604082015260600190565b60405180910390a150565b6000612de8836135bf565b90506000612e016005633105f1a6605185876000613000565b90508051600014612e2557604051630e74990760e01b815260040160405180910390fd5b50505050565b6040805160208101909152606081526000612e45836135dd565b905060405180602001604052808260000151604051602001612e679190615713565b60408051601f1981840301815291905290529392505050565b60606000612e8e6040612874565b9050612e9b81600b61318c565b825151604051612ec891612eb191602001615713565b60408051601f198184030181529190528290613651565b6020830151612ed89082906131b1565b6040830151612ee8908290612895565b606083015151612ef9908290613673565b608083015151612f0a908290613673565b60a0830151612f1a908290613198565b60c0830151612f2a908290613680565b60e0830151612f3a908290613680565b612f52612f4b8461010001516136ae565b8290613673565b612f63612f4b8461012001516136ae565b612510612f4b8461014001516136ae565b612f9a604051806060016040528060608152602001600015158152602001600081525090565b61251983604051602001612fb091815260200190565b6040516020818303038152906040528360006137c4565b60606000612fd56040612874565b9050612fe281600261318c565b825151612ff0908290613673565b612510612f4b84602001516136ae565b6060478381101561302e57604051634787a10360e11b81526004810182905260248101859052604401610870565b6000806005607f60991b0189878761304757600061304a565b60015b8b8b8f60405160200161306296959493929190615739565b60408051601f198184030181529082905261307c91615285565b600060405180830381855af49150503d80600081146130b7576040519150601f19603f3d011682016040523d82523d6000602084013e6130bc565b606091505b5091509150816130df57604051638a7db5bf60e01b815260040160405180910390fd5b6130e88161389e565b9a9950505050505050505050565b6040805180820190915260608082526000602083018190528351156131345761311f8482613981565b815191935091501561313457610dd782613b37565b505060408051600081830181815260608301909352918152602081019190915292915050565b613180604051806060016040528060608152602001600015158152602001600081525090565b612519838360006137c4565b61191482600483613c93565b6131a58260038351613c9a565b815161286f9082613db3565b61191482600083613c9a565b606060006131cb6040612874565b905061251081846131b1565b60408051808201909152600080825260208201526000806131f88482613dd4565b925090506002811461320c5761320c615788565b6132168483613e50565b60079190910b8452915061322a8483613e50565b5060070b6020840152509092915050565b604080518082019091526060808252602082015260008061325c8482613dd4565b925090506002811461327057613270615788565b61327a8483613981565b90845291506132898483613981565b506020840152509092915050565b61329f61486c565b6000806132ac8482613dd4565b92509050600b81146132c0576132c0615788565b60606132cc8584613981565b8094508192505050806000815181106132e7576132e7615249565b01602001516001600160f81b0319161561330357613303615788565b60018151613311919061520f565b6001600160401b0381111561332857613328614ad9565b6040519080825280601f01601f191660200182016040528015613352576020820181803683370190505b5084515260015b81518110156133cd5781818151811061337457613374615249565b01602001518551516001600160f81b03199091169061339460018461520f565b815181106133a4576133a4615249565b60200101906001600160f81b031916908160001a905350806133c5816156fa565b915050613359565b506133d88584613eed565b6001600160401b03909116602086015292506133f48584613f6c565b901515604086015292506134088584613981565b606086015191909152925061341d8584613981565b60808601519190915292506134328584614007565b60a086019190915292506134468584613e50565b60079190910b60c0860152925061345d8584613e50565b60079190910b60e0860152925060606134768685613981565b9450905061348381613b37565b61010086015260606134958786613981565b955090506134a281613b37565b61012087015260606134b48887613981565b965090506134c181613b37565b61014088015250949695505050505050565b6040805180820190915260608152600060208201526134f360208361579e565b1561351b5761350360208361579e565b61350e90602061520f565b61351890836157c0565b91505b60208084018390526040518085526000815290818401018181101561353f57600080fd5b604052509192915050565b815161286f9060e0831761414e565b60408051808201909152606081526000602082015260008061357b8482613dd4565b925090506002811461358f5761358f615788565b6135998483613981565b90845291506135a88483613eed565b506001600160401b03166020840152509092915050565b606060006135cd6040612874565b8351909150612510908290613673565b6040805180820190915260608152600060208201526040805180820190915260608152600060208201525b6701ffffffffffffff600784901c1692607f1660008490036136375761362e828261414e565b50909392505050565b613644826080831761414e565b5050613608565b50919050565b815161365e9060d861414e565b50815161366c90602a61414e565b5061191482825b6131a58260028351613c9a565b60008160070b126136975761191482600083613c9a565b6119148260016136a9846000196157d3565b613c9a565b8051516060906000906136c29060016157c0565b6001600160401b038111156136d9576136d9614ad9565b6040519080825280601f01601f191660200182016040528015613703576020820181803683370190505b50905082602001511515600115151461371d576000613723565b600160f81b5b8160008151811061373657613736615249565b60200101906001600160f81b031916908160001a905350600160005b84515181101561362e57845180518290811061377057613770615249565b602001015160f81c60f81b83838151811061378d5761378d615249565b60200101906001600160f81b031916908160001a905350816137ae816156fa565b92505080806137bc906156fa565b915050613752565b6137ea604051806060016040528060608152602001600015158152602001600081525090565b6020840184516000604051600060208406146001811461381c57601f8416602090810380860184528301019250613826565b6020820192508382525b508282848660046101c2fa5060208151018101604052805193505b6020841461386d576020810151156001811461385d575061386d565b50601f1990930192602001613841565b928352505081526020810183905281156138875781613892565b8051613892906141b7565b60408201529392505050565b60606000806000848060200190518101906138b99190615802565b919450925090506001600160401b0382166138f3578051156138ee57604051630e74990760e01b815260040160405180910390fd5b61395f565b6001600160401b0382166051148061391457506001600160401b0382166071145b1561393b5780516000036138ee57604051630e74990760e01b815260040160405180910390fd5b60405163f1f6bced60e01b81526001600160401b0383166004820152602401610870565b8215610dd75760405163d4bb667160e01b815260048101849052602401610870565b6060600080600061399286866141ef565b96509092506001600160401b0316905060ff8216600614806139b7575060ff82166002145b613a1a5760405162461bcd60e51b815260206004820152602e60248201527f696e76616c6964206d616a20286578706563746564204d616a546167206f722060448201526d4d616a42797465537472696e672960901b6064820152608401610870565b60051960ff831601613a5357613a3086866141ef565b96509092506001600160401b0316905060ff8216600214613a5357613a53615788565b6000613a5f82876157c0565b90506000826001600160401b03811115613a7b57613a7b614ad9565b6040519080825280601f01601f191660200182016040528015613aa5576020820181803683370190505b5090506000875b83811015613b1a57898181518110613ac657613ac6615249565b602001015160f81c60f81b838381518110613ae357613ae3615249565b60200101906001600160f81b031916908160001a90535081613b04816156fa565b9250508080613b12906156fa565b915050613aac565b5081613b26858a6157c0565b9650965050505050505b9250929050565b6040805180820190915260608152600060208201528151600003613b80575050604080516080810182526001918101918252600060608201819052918152602081019190915290565b600060018351613b90919061520f565b6001600160401b03811115613ba757613ba7614ad9565b6040519080825280601f01601f191660200182016040528015613bd1576020820181803683370190505b509050600083600081518110613be957613be9615249565b01602001516001600160f81b031916600160f81b03613c06575060015b60015b8451811015613c7857848181518110613c2457613c24615249565b01602001516001600160f81b03191683613c3f60018461520f565b81518110613c4f57613c4f615249565b60200101906001600160f81b031916908160001a90535080613c70816156fa565b915050613c09565b50604080518082019091529182521515602082015292915050565b61286f8383835b6017816001600160401b031611613cc0578251612e259060e0600585901b16831761414e565b60ff816001600160401b031611613d00578251613ce8906018611fe0600586901b161761414e565b508251612e25906001600160401b03831660016143c9565b61ffff816001600160401b031611613d41578251613d29906019611fe0600586901b161761414e565b508251612e25906001600160401b03831660026143c9565b63ffffffff816001600160401b031611613d84578251613d6c90601a611fe0600586901b161761414e565b508251612e25906001600160401b03831660046143c9565b8251613d9b90601b611fe0600586901b161761414e565b508251612e25906001600160401b03831660086143c9565b6040805180820190915260608152600060208201526125198383845161444e565b600080600080613de486866141ef565b96509092506001600160401b0316905060ff8216600414613e475760405162461bcd60e51b815260206004820152601f60248201527f696e76616c6964206d616a20286578706563746564204d616a417272617929006044820152606401610870565b95939450505050565b600080600080613e6086866141ef565b96509092506001600160401b0316905060ff821660011480613e83575060ff8216155b613e475760405162461bcd60e51b815260206004820152603560248201527f696e76616c6964206d616a20286578706563746564204d616a5369676e6564496044820152746e74206f72204d616a556e7369676e6564496e742960581b6064820152608401610870565b600080600080613efd86866141ef565b96509092506001600160401b0316905060ff821615613e475760405162461bcd60e51b815260206004820152602560248201527f696e76616c6964206d616a20286578706563746564204d616a556e7369676e6560448201526464496e742960d81b6064820152608401610870565b600080600080613f7c86866141ef565b96509092506001600160401b0316905060ff8216600714613fdf5760405162461bcd60e51b815260206004820152601f60248201527f696e76616c6964206d616a20286578706563746564204d616a4f7468657229006044820152606401610870565b6015811480613fee5750601481145b613ffa57613ffa615788565b6014141595939450505050565b6060600080600061401886866141ef565b96509092506001600160401b0316905060ff82166003146140875760405162461bcd60e51b8152602060048201526024808201527f696e76616c6964206d616a20286578706563746564204d616a54657874537472604482015263696e672960e01b6064820152608401610870565b600061409382876157c0565b90506000826001600160401b038111156140af576140af614ad9565b6040519080825280601f01601f1916602001820160405280156140d9576020820181803683370190505b5090506000875b83811015613b1a578981815181106140fa576140fa615249565b602001015160f81c60f81b83838151811061411757614117615249565b60200101906001600160f81b031916908160001a90535081614138816156fa565b9250508080614146906156fa565b9150506140e0565b60408051808201909152606081526000602082015282515160006141738260016157c0565b905084602001518210614194576141948561418f836002615897565b61451f565b84516020838201018581535080518211156141ad578181525b5093949350505050565b60006141c282614536565b156141cf57506000919050565b60208201516141dd8161457f565b9251601f190160080290920192915050565b6000806000806141ff8686614772565b905061420c6001866157c0565b94506007600582901c16601f8216601c81106142785760405162461bcd60e51b815260206004820152602560248201527f63616e6e6f742068616e646c6520686561646572732077697468206578747261604482015264203e20323760d81b6064820152608401610870565b60188160ff1610156142965790945060ff1692508491506143c29050565b8060ff166018036143125760006142ad8989614772565b90506142ba6001896157c0565b975060188160ff1610156142ff5760405162461bcd60e51b815260206004820152600c60248201526b34b73b30b634b21031b137b960a11b6044820152606401610870565b9195505060ff1692508491506143c29050565b8060ff1660190361434c57600061432989896147c1565b90506143366002896157c0565b97509195505061ffff1692508491506143c29050565b8060ff16601a0361438857600061436389896147fa565b90506143706004896157c0565b97509195505063ffffffff1692508491506143c29050565b8060ff16601b1461439b5761439b615788565b60006143a78989614833565b90506143b46008896157c0565b975091955090935085925050505b9250925092565b60408051808201909152606081526000602082015283515160006143ed82856157c0565b9050856020015181111561440a5761440a8661418f836002615897565b6000600161441a86610100615992565b614424919061520f565b90508651828101878319825116178152508051831115614442578281525b50959695505050505050565b604080518082019091526060815260006020820152825182111561447157600080fd5b835151600061448084836157c0565b9050856020015181111561449d5761449d8661418f836002615897565b8551805183820160200191600091808511156144b7578482525b505050602086015b602086106144f757805182526144d66020836157c0565b91506144e36020826157c0565b90506144f060208761520f565b95506144bf565b51815160001960208890036101000a0190811690199190911617905250849150509392505050565b815161452b83836134d3565b50612e258382613db3565b60008060208301815b84518110156145745781519250821561455d57506000949350505050565b60209182019161456d90826157c0565b905061453f565b506001949350505050565b600081156001811461476957604080517ff8f9cbfae6cc78fbefe7cdc3a1793dfcf4f0e8bbd8cec470b6a28a7a5a3e1efd81527ff5ecf1b3e9debc68e1d9cfabc5997135bfb7a7a3938b7b606b5b4b3f2f1f0ffe60208201527ff6e4ed9ff2d6b458eadcdf97bd91692de2d4da8fd2d0ac50c6ae9a8272523616818301527fc8c0b887b0a8a4489c948c7f847c6125746c645c544c444038302820181008ff60608201527ff7cae577eec2a03cf3bad76fb589591debb2dd67e0aa9834bea6925f6a4a2e0e60808201527fe39ed557db96902cd38ed14fad815115c786af479b7e8324736353433727170760a08201527fc976c13bb96e881cb166a933a55e490d9d56952b8d4e801485467d236242260660c08201527f753a6d1b65325d0c552a4d1345224105391a310b29122104190a11030902010060e0820152610100818101909252600160f81b7e818283848586878898a8b8c8d8e8f929395969799a9b9d9e9faaeb6bedeeff600160801b600160401b600160201b620100006010600460026000198e0190810481179182049091179182049091178981041791820490911791820490911791820490911791820490911760010191820283900460ff03909301519096600160ff1b81119094029190040193508116614763576001830192505b5061364b565b50600092915050565b600061477f8260016157c0565b8351101561479f5760405162461bcd60e51b81526004016108709061599e565b8282815181106147b1576147b1615249565b016020015160f81c905092915050565b60006147ce8260026157c0565b835110156147ee5760405162461bcd60e51b81526004016108709061599e565b50016020015160f01c90565b60006148078260046157c0565b835110156148275760405162461bcd60e51b81526004016108709061599e565b50016020015160e01c90565b60006148408260086157c0565b835110156148605760405162461bcd60e51b81526004016108709061599e565b50016020015160c01c90565b604080516101808101909152606061016082019081528190815260200160006001600160401b031681526020016000151581526020016148b86040518060200160405280606081525090565b81526020016148d36040518060200160405280606081525090565b815260200160608152602001600060070b8152602001600060070b81526020016149126040518060400160405280606081526020016000151581525090565b81526020016149366040518060400160405280606081526020016000151581525090565b815260200161495a6040518060400160405280606081526020016000151581525090565b905290565b50805461496b906151c5565b6000825580601f1061497b575050565b601f01602090049060005260206000209081019061499991906149d1565b50565b60405180604001604052806149c4604051806040016040528060608152602001600081525090565b8152602001600081525090565b5b808211156149e657600081556001016149d2565b5090565b6001600160401b038116811461499957600080fd5b60008060408385031215614a1257600080fd5b8235614a1d816149ea565b946020939093013593505050565b60005b83811015614a46578181015183820152602001614a2e565b50506000910152565b60008151808452614a67816020860160208601614a2b565b601f01601f19169290920160200192915050565b6001600160401b038716815260e060208201526000614a9d60e0830188614a4f565b600787810b604085015286810b60608501528551810b60808501526020860151900b60a0840152905082151560c0830152979650505050505050565b634e487b7160e01b600052604160045260246000fd5b604051601f8201601f191681016001600160401b0381118282101715614b1757614b17614ad9565b604052919050565b60006001600160401b03821115614b3857614b38614ad9565b50601f01601f191660200190565b600082601f830112614b5757600080fd5b8135614b6a614b6582614b1f565b614aef565b818152846020838601011115614b7f57600080fd5b816020850160208301376000918101602001919091529392505050565b600060208284031215614bae57600080fd5b81356001600160401b03811115614bc457600080fd5b610dd784828501614b46565b6000610160808352614be48184018f614a4f565b61ffff8e811660208601528d811660408601528c1660608501526001600160401b038b16608085015283810360a08501529050614c21818a614a4f565b90508760070b60c08401528660e0840152828103610100840152614c458187614a4f565b915050614c5e6101208301856001600160401b03169052565b6001600160401b0383166101408301529c9b505050505050505050505050565b60008060408385031215614c9157600080fd5b82356001600160401b0380821115614ca857600080fd5b9084019060208287031215614cbc57600080fd5b604051602081018181108382111715614cd757614cd7614ad9565b604052823582811115614ce957600080fd5b614cf588828601614b46565b8252509660209590950135955050505050565b60008060408385031215614d1b57600080fd5b8235614d26816149ea565b91506020830135614d36816149ea565b809150509250929050565b60006020808301818452808551808352604092508286019150828160051b87010184880160005b83811015614db857888303603f1901855281518051878552614d8c88860182614a4f565b91890151858303868b0152919050614da48183614a4f565b968901969450505090860190600101614d68565b509098975050505050505050565b6020815260006125196020830184614a4f565b600060208284031215614deb57600080fd5b5035919050565b803561ffff81168114614e0457600080fd5b919050565b600060208284031215614e1b57600080fd5b61251982614df2565b6020815260008251610160806020850152614e43610180850183614a4f565b91506020850151614e5a604086018261ffff169052565b50604085015161ffff8116606086015250606085015161ffff811660808601525060808501516001600160401b03811660a08601525060a0850151601f19808685030160c0870152614eac8483614a4f565b935060c08701519150614ec460e087018360070b9052565b60e08701519150610100828188015280880151925050610120818786030181880152614ef08584614a4f565b94508088015192505050610140614f11818701836001600160401b03169052565b909501516001600160401b031693019290925250919050565b600080600060608486031215614f3f57600080fd5b8335614f4a816149ea565b92506020840135614f5a816149ea565b915060408401356001600160401b03811115614f7557600080fd5b614f8186828701614b46565b9150509250925092565b63ffffffff841681526001600160401b0383166020820152606060408201526000614fb96060830184614a4f565b95945050505050565b60006020808301818452808551808352604092508286019150828160051b87010184880160005b83811015614db857603f19898403018552815160e06001600160401b03825116855288820151818a87015261502082870182614a4f565b838a0151600790810b888c0152606080860151820b908901526080808601518051830b918a019190915260200151900b60a08089019190915290930151151560c0909601959095525094870194925090860190600101614fe9565b6000602080838503121561508e57600080fd5b82356001600160401b03808211156150a557600080fd5b818501915085601f8301126150b957600080fd5b8135818111156150cb576150cb614ad9565b8060051b6150da858201614aef565b91825283810185019185810190898411156150f457600080fd5b86860192505b83831015615130578235858111156151125760008081fd5b6151208b89838a0101614b46565b83525091860191908601906150fa565b9998505050505050505050565b6000806040838503121561515057600080fd5b82356001600160401b0381111561516657600080fd5b61517285828601614b46565b92505061518160208401614df2565b90509250929050565b60006020828403121561519c57600080fd5b81356001600160401b038111156151b257600080fd5b8201610100818503121561251957600080fd5b600181811c908216806151d957607f821691505b60208210810361364b57634e487b7160e01b600052602260045260246000fd5b634e487b7160e01b600052601160045260246000fd5b818103818111156107e7576107e76151f9565b6001600160401b03818116838216019080821115615242576152426151f9565b5092915050565b634e487b7160e01b600052603260045260246000fd5b60006001600160401b0380831681810361527b5761527b6151f9565b6001019392505050565b60008251615297818460208701614a2b565b9190910192915050565b600061ffff80831681810361527b5761527b6151f9565b600781810b9083900b01677fffffffffffffff8113677fffffffffffffff19821217156107e7576107e76151f9565b8481526bffffffffffffffffffffffff198460601b16602082015260008351615317816034850160208801614a2b565b60f09390931b6001600160f01b03191660349290930191820192909252603601949350505050565b601f82111561286f57600081815260208120601f850160051c810160208610156153665750805b601f850160051c820191505b8181101561538557828155600101615372565b505050505050565b600019600383901b1c191660019190911b1790565b81516001600160401b038111156153bb576153bb614ad9565b6153cf816153c984546151c5565b8461533f565b602080601f8311600181146153fe57600084156153ec5750858301515b6153f6858261538d565b865550615385565b600085815260208120601f198616915b8281101561542d5788860151825594840194600190910190840161540e565b508582101561544b5787850151600019600388901b60f8161c191681555b5050505050600190811b01905550565b6000808335601e1984360301811261547257600080fd5b8301803591506001600160401b0382111561548c57600080fd5b602001915036819003821315613b3057600080fd5b6000602082840312156154b357600080fd5b8135612519816149ea565b6000602082840312156154d057600080fd5b81358060070b811461251957600080fd5b8183823760009101908152919050565b8581526bffffffffffffffffffffffff198560601b1660208201528284603483013760f09190911b6001600160f01b031916603491909201908101919091526036019392505050565b6001600160401b0383111561555157615551614ad9565b6155658361555f83546151c5565b8361533f565b6000601f84116001811461559357600085156155815750838201355b61558b868261538d565b8455506155ed565b600083815260209020601f19861690835b828110156155c457868501358255602094850194600190920191016155a4565b50868210156155e15760001960f88860031b161c19848701351681555b505060018560011b0183555b5050505050565b8051602080830151919081101561364b5760001960209190910360031b1b16919050565b818103615623575050565b61562d82546151c5565b6001600160401b0381111561564457615644614ad9565b615652816153c984546151c5565b6000601f821160018114615680576000831561566e5750848201545b615678848261538d565b8555506155ed565b600085815260209020601f19841690600086815260209020845b838110156156ba578286015482556001958601959091019060200161569a565b508583101561544b5793015460001960f8600387901b161c19169092555050600190811b01905550565b634e487b7160e01b600052603160045260246000fd5b60006001820161570c5761570c6151f9565b5060010190565b600081526000825161572c816001850160208701614a2b565b9190910160010192915050565b60006001600160401b0380891683528760208401528087166040840152808616606084015260c0608084015261577260c0840186614a4f565b915080841660a084015250979650505050505050565b634e487b7160e01b600052600160045260246000fd5b6000826157bb57634e487b7160e01b600052601260045260246000fd5b500690565b808201808211156107e7576107e76151f9565b600782810b9082900b03677fffffffffffffff198112677fffffffffffffff821317156107e7576107e76151f9565b60008060006060848603121561581757600080fd5b835192506020840151615829816149ea565b60408501519092506001600160401b0381111561584557600080fd5b8401601f8101861361585657600080fd5b8051615864614b6582614b1f565b81815287602083850101111561587957600080fd5b61588a826020830160208601614a2b565b8093505050509250925092565b80820281158282048414176107e7576107e76151f9565b600181815b808511156158e95781600019048211156158cf576158cf6151f9565b808516156158dc57918102915b93841c93908002906158b3565b509250929050565b600082615900575060016107e7565b8161590d575060006107e7565b8160018114615923576002811461592d57615949565b60019150506107e7565b60ff84111561593e5761593e6151f9565b50506001821b6107e7565b5060208310610133831016604e8410600b841016171561596c575081810a6107e7565b61597683836158ae565b806000190482111561598a5761598a6151f9565b029392505050565b600061251983836158f1565b602080825260149082015273736c6963696e67206f7574206f662072616e676560601b60408201526060019056fea2646970667358221220d1ce4213352cf48083b77c22fae0719d074074d571389d4606f04846da6c940164736f6c63430008110033",
  "linkReferences": {},
  "deployedLinkReferences": {}
}